{
  "_format": "hh-sol-artifact-1",
  "contractName": "BondingCurve",
  "sourceName": "contracts/BondingCurve.sol",
  "abi": [
    {
      "inputs": [
        {
          "internalType": "address",
          "name": "_token100x",
          "type": "address"
        }
      ],
      "stateMutability": "nonpayable",
      "type": "constructor"
    },
    {
      "inputs": [],
      "name": "EnforcedPause",
      "type": "error"
    },
    {
      "inputs": [],
      "name": "ExpectedPause",
      "type": "error"
    },
    {
      "inputs": [
        {
          "internalType": "address",
          "name": "owner",
          "type": "address"
        }
      ],
      "name": "OwnableInvalidOwner",
      "type": "error"
    },
    {
      "inputs": [
        {
          "internalType": "address",
          "name": "account",
          "type": "address"
        }
      ],
      "name": "OwnableUnauthorizedAccount",
      "type": "error"
    },
    {
      "inputs": [],
      "name": "ReentrancyGuardReentrantCall",
      "type": "error"
    },
    {
      "anonymous": false,
      "inputs": [
        {
          "indexed": true,
          "internalType": "address",
          "name": "buyer",
          "type": "address"
        },
        {
          "indexed": false,
          "internalType": "uint256",
          "name": "tokenAmount",
          "type": "uint256"
        },
        {
          "indexed": false,
          "internalType": "uint256",
          "name": "sPaid",
          "type": "uint256"
        }
      ],
      "name": "Buy",
      "type": "event"
    },
    {
      "anonymous": false,
      "inputs": [
        {
          "indexed": false,
          "internalType": "uint256",
          "name": "newPrice",
          "type": "uint256"
        }
      ],
      "name": "FinalPriceUpdated",
      "type": "event"
    },
    {
      "anonymous": false,
      "inputs": [
        {
          "indexed": false,
          "internalType": "uint256",
          "name": "tokenAmount",
          "type": "uint256"
        },
        {
          "indexed": false,
          "internalType": "uint256",
          "name": "sAmount",
          "type": "uint256"
        }
      ],
      "name": "FullTimelockWithdrawExecuted",
      "type": "event"
    },
    {
      "anonymous": false,
      "inputs": [
        {
          "indexed": false,
          "internalType": "uint256",
          "name": "tokenAmount",
          "type": "uint256"
        },
        {
          "indexed": false,
          "internalType": "uint256",
          "name": "sAmount",
          "type": "uint256"
        },
        {
          "indexed": false,
          "internalType": "uint256",
          "name": "requestTime",
          "type": "uint256"
        }
      ],
      "name": "FullTimelockWithdrawRequested",
      "type": "event"
    },
    {
      "anonymous": false,
      "inputs": [
        {
          "indexed": false,
          "internalType": "uint256",
          "name": "newPrice",
          "type": "uint256"
        }
      ],
      "name": "InitialPriceUpdated",
      "type": "event"
    },
    {
      "anonymous": false,
      "inputs": [
        {
          "indexed": false,
          "internalType": "address",
          "name": "pool",
          "type": "address"
        },
        {
          "indexed": false,
          "internalType": "uint256",
          "name": "tokenAmount",
          "type": "uint256"
        },
        {
          "indexed": false,
          "internalType": "uint256",
          "name": "sAmount",
          "type": "uint256"
        }
      ],
      "name": "LiquidityPoolCreated",
      "type": "event"
    },
    {
      "anonymous": false,
      "inputs": [
        {
          "indexed": false,
          "internalType": "address",
          "name": "factory",
          "type": "address"
        }
      ],
      "name": "LiquidityPoolFactorySet",
      "type": "event"
    },
    {
      "anonymous": false,
      "inputs": [
        {
          "indexed": true,
          "internalType": "address",
          "name": "previousOwner",
          "type": "address"
        },
        {
          "indexed": true,
          "internalType": "address",
          "name": "newOwner",
          "type": "address"
        }
      ],
      "name": "OwnershipTransferred",
      "type": "event"
    },
    {
      "anonymous": false,
      "inputs": [
        {
          "indexed": false,
          "internalType": "address",
          "name": "account",
          "type": "address"
        }
      ],
      "name": "Paused",
      "type": "event"
    },
    {
      "anonymous": false,
      "inputs": [
        {
          "indexed": false,
          "internalType": "uint256",
          "name": "newSUsdPrice",
          "type": "uint256"
        }
      ],
      "name": "SUsdPriceUpdated",
      "type": "event"
    },
    {
      "anonymous": false,
      "inputs": [
        {
          "indexed": true,
          "internalType": "address",
          "name": "seller",
          "type": "address"
        },
        {
          "indexed": false,
          "internalType": "uint256",
          "name": "tokenAmount",
          "type": "uint256"
        },
        {
          "indexed": false,
          "internalType": "uint256",
          "name": "sReceived",
          "type": "uint256"
        }
      ],
      "name": "Sell",
      "type": "event"
    },
    {
      "anonymous": false,
      "inputs": [
        {
          "indexed": false,
          "internalType": "uint256",
          "name": "newFee",
          "type": "uint256"
        }
      ],
      "name": "SellFeeUpdated",
      "type": "event"
    },
    {
      "anonymous": false,
      "inputs": [
        {
          "indexed": true,
          "internalType": "address",
          "name": "pool",
          "type": "address"
        },
        {
          "indexed": false,
          "internalType": "uint256",
          "name": "tokenAmount",
          "type": "uint256"
        },
        {
          "indexed": false,
          "internalType": "uint256",
          "name": "sAmount",
          "type": "uint256"
        }
      ],
      "name": "SentToLiquidityPool",
      "type": "event"
    },
    {
      "anonymous": false,
      "inputs": [
        {
          "indexed": false,
          "internalType": "uint256",
          "name": "totalBought",
          "type": "uint256"
        },
        {
          "indexed": false,
          "internalType": "uint256",
          "name": "totalSoldBack",
          "type": "uint256"
        }
      ],
      "name": "ThresholdReached",
      "type": "event"
    },
    {
      "anonymous": false,
      "inputs": [
        {
          "indexed": false,
          "internalType": "uint256",
          "name": "amount",
          "type": "uint256"
        }
      ],
      "name": "TokenTransferred",
      "type": "event"
    },
    {
      "anonymous": false,
      "inputs": [
        {
          "indexed": false,
          "internalType": "address",
          "name": "account",
          "type": "address"
        }
      ],
      "name": "Unpaused",
      "type": "event"
    },
    {
      "inputs": [],
      "name": "MAX_TOKEN_AMOUNT_PER_TX",
      "outputs": [
        {
          "internalType": "uint256",
          "name": "",
          "type": "uint256"
        }
      ],
      "stateMutability": "view",
      "type": "function"
    },
    {
      "inputs": [],
      "name": "PRICE_DECIMALS",
      "outputs": [
        {
          "internalType": "uint256",
          "name": "",
          "type": "uint256"
        }
      ],
      "stateMutability": "view",
      "type": "function"
    },
    {
      "inputs": [],
      "name": "THRESHOLD",
      "outputs": [
        {
          "internalType": "uint256",
          "name": "",
          "type": "uint256"
        }
      ],
      "stateMutability": "view",
      "type": "function"
    },
    {
      "inputs": [],
      "name": "USD_PRICE_DECIMALS",
      "outputs": [
        {
          "internalType": "uint256",
          "name": "",
          "type": "uint256"
        }
      ],
      "stateMutability": "view",
      "type": "function"
    },
    {
      "inputs": [],
      "name": "WITHDRAW_DELAY",
      "outputs": [
        {
          "internalType": "uint256",
          "name": "",
          "type": "uint256"
        }
      ],
      "stateMutability": "view",
      "type": "function"
    },
    {
      "inputs": [
        {
          "internalType": "uint256",
          "name": "tokenAmount",
          "type": "uint256"
        }
      ],
      "name": "buy",
      "outputs": [],
      "stateMutability": "payable",
      "type": "function"
    },
    {
      "inputs": [
        {
          "internalType": "uint256",
          "name": "tokenAmount",
          "type": "uint256"
        }
      ],
      "name": "calculateBuyPrice",
      "outputs": [
        {
          "internalType": "uint256",
          "name": "",
          "type": "uint256"
        }
      ],
      "stateMutability": "view",
      "type": "function"
    },
    {
      "inputs": [
        {
          "internalType": "uint256",
          "name": "tokenAmount",
          "type": "uint256"
        }
      ],
      "name": "calculateSellPrice",
      "outputs": [
        {
          "internalType": "uint256",
          "name": "",
          "type": "uint256"
        }
      ],
      "stateMutability": "view",
      "type": "function"
    },
    {
      "inputs": [],
      "name": "cancelFullWithdraw",
      "outputs": [],
      "stateMutability": "nonpayable",
      "type": "function"
    },
    {
      "inputs": [],
      "name": "createLiquidityPoolManually",
      "outputs": [],
      "stateMutability": "nonpayable",
      "type": "function"
    },
    {
      "inputs": [],
      "name": "currentSUsdPrice",
      "outputs": [
        {
          "internalType": "uint256",
          "name": "",
          "type": "uint256"
        }
      ],
      "stateMutability": "view",
      "type": "function"
    },
    {
      "inputs": [],
      "name": "executeFullTimelockWithdraw",
      "outputs": [],
      "stateMutability": "nonpayable",
      "type": "function"
    },
    {
      "inputs": [],
      "name": "finalPrice",
      "outputs": [
        {
          "internalType": "uint256",
          "name": "",
          "type": "uint256"
        }
      ],
      "stateMutability": "view",
      "type": "function"
    },
    {
      "inputs": [],
      "name": "fullTimelockWithdraw",
      "outputs": [],
      "stateMutability": "nonpayable",
      "type": "function"
    },
    {
      "inputs": [],
      "name": "getCurrentPrice",
      "outputs": [
        {
          "internalType": "uint256",
          "name": "",
          "type": "uint256"
        }
      ],
      "stateMutability": "view",
      "type": "function"
    },
    {
      "inputs": [],
      "name": "getPoolInfo",
      "outputs": [
        {
          "internalType": "uint256",
          "name": "accountingS",
          "type": "uint256"
        },
        {
          "internalType": "uint256",
          "name": "actualS",
          "type": "uint256"
        },
        {
          "internalType": "uint256",
          "name": "tokenBalance",
          "type": "uint256"
        }
      ],
      "stateMutability": "view",
      "type": "function"
    },
    {
      "inputs": [],
      "name": "getSupplyStats",
      "outputs": [
        {
          "internalType": "uint256",
          "name": "totalSupply",
          "type": "uint256"
        },
        {
          "internalType": "uint256",
          "name": "sold",
          "type": "uint256"
        },
        {
          "internalType": "uint256",
          "name": "available",
          "type": "uint256"
        },
        {
          "internalType": "uint256",
          "name": "percentageSold",
          "type": "uint256"
        }
      ],
      "stateMutability": "view",
      "type": "function"
    },
    {
      "inputs": [
        {
          "internalType": "uint256",
          "name": "tokenAmount",
          "type": "uint256"
        }
      ],
      "name": "getUsdBuyPrice",
      "outputs": [
        {
          "internalType": "uint256",
          "name": "",
          "type": "uint256"
        }
      ],
      "stateMutability": "view",
      "type": "function"
    },
    {
      "inputs": [
        {
          "internalType": "uint256",
          "name": "tokenAmount",
          "type": "uint256"
        }
      ],
      "name": "getUsdSellPrice",
      "outputs": [
        {
          "internalType": "uint256",
          "name": "",
          "type": "uint256"
        }
      ],
      "stateMutability": "view",
      "type": "function"
    },
    {
      "inputs": [],
      "name": "initialPrice",
      "outputs": [
        {
          "internalType": "uint256",
          "name": "",
          "type": "uint256"
        }
      ],
      "stateMutability": "view",
      "type": "function"
    },
    {
      "inputs": [],
      "name": "jackpotAddress",
      "outputs": [
        {
          "internalType": "address",
          "name": "",
          "type": "address"
        }
      ],
      "stateMutability": "view",
      "type": "function"
    },
    {
      "inputs": [],
      "name": "liquidityPool",
      "outputs": [
        {
          "internalType": "address",
          "name": "",
          "type": "address"
        }
      ],
      "stateMutability": "view",
      "type": "function"
    },
    {
      "inputs": [],
      "name": "liquidityPoolCreated",
      "outputs": [
        {
          "internalType": "bool",
          "name": "",
          "type": "bool"
        }
      ],
      "stateMutability": "view",
      "type": "function"
    },
    {
      "inputs": [],
      "name": "liquidityPoolFactory",
      "outputs": [
        {
          "internalType": "address",
          "name": "",
          "type": "address"
        }
      ],
      "stateMutability": "view",
      "type": "function"
    },
    {
      "inputs": [],
      "name": "owner",
      "outputs": [
        {
          "internalType": "address",
          "name": "",
          "type": "address"
        }
      ],
      "stateMutability": "view",
      "type": "function"
    },
    {
      "inputs": [],
      "name": "pause",
      "outputs": [],
      "stateMutability": "nonpayable",
      "type": "function"
    },
    {
      "inputs": [],
      "name": "paused",
      "outputs": [
        {
          "internalType": "bool",
          "name": "",
          "type": "bool"
        }
      ],
      "stateMutability": "view",
      "type": "function"
    },
    {
      "inputs": [],
      "name": "poolS",
      "outputs": [
        {
          "internalType": "uint256",
          "name": "",
          "type": "uint256"
        }
      ],
      "stateMutability": "view",
      "type": "function"
    },
    {
      "inputs": [],
      "name": "renounceOwnership",
      "outputs": [],
      "stateMutability": "nonpayable",
      "type": "function"
    },
    {
      "inputs": [
        {
          "internalType": "uint256",
          "name": "tokenAmount",
          "type": "uint256"
        }
      ],
      "name": "sell",
      "outputs": [],
      "stateMutability": "nonpayable",
      "type": "function"
    },
    {
      "inputs": [],
      "name": "sellFee",
      "outputs": [
        {
          "internalType": "uint256",
          "name": "",
          "type": "uint256"
        }
      ],
      "stateMutability": "view",
      "type": "function"
    },
    {
      "inputs": [
        {
          "internalType": "address",
          "name": "pool",
          "type": "address"
        },
        {
          "internalType": "uint256",
          "name": "tokenAmount",
          "type": "uint256"
        },
        {
          "internalType": "uint256",
          "name": "sAmount",
          "type": "uint256"
        }
      ],
      "name": "sendToLiquidityPool",
      "outputs": [],
      "stateMutability": "nonpayable",
      "type": "function"
    },
    {
      "inputs": [
        {
          "internalType": "uint256",
          "name": "_newPrice",
          "type": "uint256"
        }
      ],
      "name": "setFinalPrice",
      "outputs": [],
      "stateMutability": "nonpayable",
      "type": "function"
    },
    {
      "inputs": [
        {
          "internalType": "uint256",
          "name": "_newPrice",
          "type": "uint256"
        }
      ],
      "name": "setInitialPrice",
      "outputs": [],
      "stateMutability": "nonpayable",
      "type": "function"
    },
    {
      "inputs": [
        {
          "internalType": "address",
          "name": "_jackpotAddress",
          "type": "address"
        }
      ],
      "name": "setJackpotAddress",
      "outputs": [],
      "stateMutability": "nonpayable",
      "type": "function"
    },
    {
      "inputs": [
        {
          "internalType": "address",
          "name": "_factory",
          "type": "address"
        }
      ],
      "name": "setLiquidityPoolFactory",
      "outputs": [],
      "stateMutability": "nonpayable",
      "type": "function"
    },
    {
      "inputs": [
        {
          "internalType": "uint256",
          "name": "_newSUsdPrice",
          "type": "uint256"
        }
      ],
      "name": "setSUsdPrice",
      "outputs": [],
      "stateMutability": "nonpayable",
      "type": "function"
    },
    {
      "inputs": [
        {
          "internalType": "uint256",
          "name": "_fee",
          "type": "uint256"
        }
      ],
      "name": "setSellFee",
      "outputs": [],
      "stateMutability": "nonpayable",
      "type": "function"
    },
    {
      "inputs": [],
      "name": "token100x",
      "outputs": [
        {
          "internalType": "contract IERC20",
          "name": "",
          "type": "address"
        }
      ],
      "stateMutability": "view",
      "type": "function"
    },
    {
      "inputs": [],
      "name": "totalBought",
      "outputs": [
        {
          "internalType": "uint256",
          "name": "",
          "type": "uint256"
        }
      ],
      "stateMutability": "view",
      "type": "function"
    },
    {
      "inputs": [],
      "name": "totalSoldBack",
      "outputs": [
        {
          "internalType": "uint256",
          "name": "",
          "type": "uint256"
        }
      ],
      "stateMutability": "view",
      "type": "function"
    },
    {
      "inputs": [
        {
          "internalType": "address",
          "name": "newOwner",
          "type": "address"
        }
      ],
      "name": "transferOwnership",
      "outputs": [],
      "stateMutability": "nonpayable",
      "type": "function"
    },
    {
      "inputs": [],
      "name": "unpause",
      "outputs": [],
      "stateMutability": "nonpayable",
      "type": "function"
    },
    {
      "inputs": [],
      "name": "withdrawRequest",
      "outputs": [
        {
          "internalType": "uint256",
          "name": "tokenAmount",
          "type": "uint256"
        },
        {
          "internalType": "uint256",
          "name": "sAmount",
          "type": "uint256"
        },
        {
          "internalType": "uint256",
          "name": "requestTime",
          "type": "uint256"
        },
        {
          "internalType": "bool",
          "name": "active",
          "type": "bool"
        }
      ],
      "stateMutability": "view",
      "type": "function"
    },
    {
      "stateMutability": "payable",
      "type": "receive"
    }
  ],
  "bytecode": "0x60806040526101f460095534801561001657600080fd5b50604051614a47380380614a47833981810160405281019061003891906104e9565b336001600081905550600073ffffffffffffffffffffffffffffffffffffffff168173ffffffffffffffffffffffffffffffffffffffff16036100b35760006040517f1e4fbdf70000000000000000000000000000000000000000000000000000000081526004016100aa9190610525565b60405180910390fd5b6100c2816102ec60201b60201c565b506000600160146101000a81548160ff021916908315150217905550600073ffffffffffffffffffffffffffffffffffffffff168173ffffffffffffffffffffffffffffffffffffffff160361014d576040517f08c379a00000000000000000000000000000000000000000000000000000000081526004016101449061059d565b60405180910390fd5b80600260006101000a81548173ffffffffffffffffffffffffffffffffffffffff021916908373ffffffffffffffffffffffffffffffffffffffff160217905550659184e72a000060058190555065da475abf0000600681905550603260078190555033600a60006101000a81548173ffffffffffffffffffffffffffffffffffffffff021916908373ffffffffffffffffffffffffffffffffffffffff160217905550600260009054906101000a900473ffffffffffffffffffffffffffffffffffffffff1673ffffffffffffffffffffffffffffffffffffffff166323b872dd333065640b5eece0006040518463ffffffff1660e01b81526004016102569392919061060c565b6020604051808303816000875af1158015610275573d6000803e3d6000fd5b505050506040513d601f19601f82011682018060405250810190610299919061067b565b6102d8576040517f08c379a00000000000000000000000000000000000000000000000000000000081526004016102cf906106f4565b60405180910390fd5b6102e66103b260201b60201c565b50610714565b6000600160009054906101000a900473ffffffffffffffffffffffffffffffffffffffff16905081600160006101000a81548173ffffffffffffffffffffffffffffffffffffffff021916908373ffffffffffffffffffffffffffffffffffffffff1602179055508173ffffffffffffffffffffffffffffffffffffffff168173ffffffffffffffffffffffffffffffffffffffff167f8be0079c531659141344cd1fd0a4f28419497f9722a3daafe3b4186f6b6457e060405160405180910390a35050565b6103c061042060201b60201c565b60018060146101000a81548160ff0219169083151502179055507f62e78cea01bee320cd4e420270b5ea74000d11b0c9f74754ebdbfc544b05a25861040961046760201b60201c565b6040516104169190610525565b60405180910390a1565b61042e61046f60201b60201c565b15610465576040517fd93c066500000000000000000000000000000000000000000000000000000000815260040160405180910390fd5b565b600033905090565b6000600160149054906101000a900460ff16905090565b600080fd5b600073ffffffffffffffffffffffffffffffffffffffff82169050919050565b60006104b68261048b565b9050919050565b6104c6816104ab565b81146104d157600080fd5b50565b6000815190506104e3816104bd565b92915050565b6000602082840312156104ff576104fe610486565b5b600061050d848285016104d4565b91505092915050565b61051f816104ab565b82525050565b600060208201905061053a6000830184610516565b92915050565b600082825260208201905092915050565b7f496e76616c696420746f6b656e20616464726573730000000000000000000000600082015250565b6000610587601583610540565b915061059282610551565b602082019050919050565b600060208201905081810360008301526105b68161057a565b9050919050565b6000819050919050565b6000819050919050565b6000819050919050565b60006105f66105f16105ec846105bd565b6105d1565b6105c7565b9050919050565b610606816105db565b82525050565b60006060820190506106216000830186610516565b61062e6020830185610516565b61063b60408301846105fd565b949350505050565b60008115159050919050565b61065881610643565b811461066357600080fd5b50565b6000815190506106758161064f565b92915050565b60006020828403121561069157610690610486565b5b600061069f84828501610666565b91505092915050565b7f53656564207472616e73666572206661696c6564000000000000000000000000600082015250565b60006106de601483610540565b91506106e9826106a8565b602082019050919050565b6000602082019050818103600083015261070d816106d1565b9050919050565b614324806107236000396000f3fe60806040526004361061026b5760003560e01c80636bc0b3ba116101445780639f4ba0ee116100b6578063e4849b321161007a578063e4849b32146108b9578063e75d75d5146108e2578063eb91d37e1461090d578063ee7bdddf14610938578063f1a640f814610963578063f2fde38b1461098e576102ab565b80639f4ba0ee146107f5578063a6b513ee1461081e578063bb55f25c14610849578063becb92e314610872578063d96a094a1461089d576102ab565b806379551f0e1161010857806379551f0e146106f9578063831e39a61461072457806383642d82146107615780638456cb591461078a5780638b4cee08146107a15780638da5cb5b146107ca576102ab565b80636bc0b3ba1461064a578063715018a614610675578063770f65741461068c5780637852c193146106b7578063785ffb37146106ce576102ab565b8063380e687a116101dd5780634a91f195116101a15780634a91f1951461054857806358b9a996146105735780635c975abb146105b057806360246c88146105db5780636130158914610608578063665a11ca1461061f576102ab565b8063380e687a146104865780633f4ba83a146104b4578063409acbc7146104cb578063488544ae146104f65780634a3f7e301461051f576102ab565b80631ef46d051161022f5780631ef46d0514610399578063233ed5cd146103b05780632b14ca56146103d95780632e5e2b3b1461040457806330affae21461044157806335e78d7514610458576102ab565b80630116e377146102b05780630d5e5fff146102db57806318e53f31146103065780631d0806ae146103315780631dfc83be1461035c576102ab565b366102ab576040517f08c379a00000000000000000000000000000000000000000000000000000000081526004016102a29061315d565b60405180910390fd5b600080fd5b3480156102bc57600080fd5b506102c56109b7565b6040516102d29190613198565b60405180910390f35b3480156102e757600080fd5b506102f06109ca565b6040516102fd91906131cc565b60405180910390f35b34801561031257600080fd5b5061031b6109d1565b60405161032891906131cc565b60405180910390f35b34801561033d57600080fd5b506103466109d7565b60405161035391906131cc565b60405180910390f35b34801561036857600080fd5b50610383600480360381019061037e9190613218565b6109dd565b60405161039091906131cc565b60405180910390f35b3480156103a557600080fd5b506103ae610a0d565b005b3480156103bc57600080fd5b506103d760048036038101906103d29190613218565b610c11565b005b3480156103e557600080fd5b506103ee610c9d565b6040516103fb91906131cc565b60405180910390f35b34801561041057600080fd5b5061042b60048036038101906104269190613218565b610ca3565b60405161043891906131cc565b60405180910390f35b34801561044d57600080fd5b50610456610da1565b005b34801561046457600080fd5b5061046d6111ac565b60405161047d9493929190613245565b60405180910390f35b34801561049257600080fd5b5061049b61120b565b6040516104ab949392919061328a565b60405180910390f35b3480156104c057600080fd5b506104c9611236565b005b3480156104d757600080fd5b506104e0611248565b6040516104ed91906131cc565b60405180910390f35b34801561050257600080fd5b5061051d6004803603810190610518919061332d565b61124e565b005b34801561052b57600080fd5b506105466004803603810190610541919061335a565b611340565b005b34801561055457600080fd5b5061055d6116c5565b60405161056a91906131cc565b60405180910390f35b34801561057f57600080fd5b5061059a60048036038101906105959190613218565b6116cb565b6040516105a791906131cc565b60405180910390f35b3480156105bc57600080fd5b506105c56117c6565b6040516105d29190613198565b60405180910390f35b3480156105e757600080fd5b506105f06117dd565b6040516105ff939291906133ad565b60405180910390f35b34801561061457600080fd5b5061061d61188d565b005b34801561062b57600080fd5b50610634611928565b60405161064191906133f3565b60405180910390f35b34801561065657600080fd5b5061065f61194e565b60405161066c91906133f3565b60405180910390f35b34801561068157600080fd5b5061068a611974565b005b34801561069857600080fd5b506106a1611988565b6040516106ae91906131cc565b60405180910390f35b3480156106c357600080fd5b506106cc61198f565b005b3480156106da57600080fd5b506106e3611c27565b6040516106f091906131cc565b60405180910390f35b34801561070557600080fd5b5061070e611c31565b60405161071b91906131cc565b60405180910390f35b34801561073057600080fd5b5061074b60048036038101906107469190613218565b611c36565b60405161075891906131cc565b60405180910390f35b34801561076d57600080fd5b506107886004803603810190610783919061332d565b611c66565b005b34801561079657600080fd5b5061079f611d21565b005b3480156107ad57600080fd5b506107c860048036038101906107c39190613218565b611d33565b005b3480156107d657600080fd5b506107df611dc1565b6040516107ec91906133f3565b60405180910390f35b34801561080157600080fd5b5061081c60048036038101906108179190613218565b611deb565b005b34801561082a57600080fd5b50610833611ec3565b60405161084091906131cc565b60405180910390f35b34801561085557600080fd5b50610870600480360381019061086b9190613218565b611ec9565b005b34801561087e57600080fd5b50610887611f5e565b604051610894919061346d565b60405180910390f35b6108b760048036038101906108b29190613218565b611f84565b005b3480156108c557600080fd5b506108e060048036038101906108db9190613218565b612395565b005b3480156108ee57600080fd5b506108f7612800565b60405161090491906133f3565b60405180910390f35b34801561091957600080fd5b50610922612826565b60405161092f91906131cc565b60405180910390f35b34801561094457600080fd5b5061094d6128b0565b60405161095a91906131cc565b60405180910390f35b34801561096f57600080fd5b506109786128b6565b60405161098591906131cc565b60405180910390f35b34801561099a57600080fd5b506109b560048036038101906109b0919061332d565b6128bb565b005b600c60149054906101000a900460ff1681565b6201518081565b60085481565b60055481565b6000806109e983610ca3565b90506007546064826109fb91906134b7565b610a059190613528565b915050919050565b610a15612941565b610a1d6129c8565b600d60030160009054906101000a900460ff1615610a70576040517f08c379a0000000000000000000000000000000000000000000000000000000008152600401610a67906135a5565b60405180910390fd5b6000600260009054906101000a900473ffffffffffffffffffffffffffffffffffffffff1673ffffffffffffffffffffffffffffffffffffffff166370a08231306040518263ffffffff1660e01b8152600401610acd91906133f3565b602060405180830381865afa158015610aea573d6000803e3d6000fd5b505050506040513d601f19601f82011682018060405250810190610b0e91906135da565b905060004790506000821180610b245750600081115b610b63576040517f08c379a0000000000000000000000000000000000000000000000000000000008152600401610b5a90613653565b60405180910390fd5b604051806080016040528083815260200182815260200142815260200160011515815250600d60008201518160000155602082015181600101556040820151816002015560608201518160030160006101000a81548160ff0219169083151502179055509050507f56f45305231276ded80ae80a94d85c0f1514e03c5de77d0a6185ba46606e5f50828242604051610bfd939291906133ad565b60405180910390a15050610c0f612a0e565b565b610c19612941565b60008111610c5c576040517f08c379a0000000000000000000000000000000000000000000000000000000008152600401610c53906136bf565b60405180910390fd5b806007819055507f35eb434259409ef3e95c7f105e9d370beb79bc0d16db0e63041d77a53ba4650b81604051610c9291906131cc565b60405180910390a150565b60095481565b600080620f4240600454600354610cba91906136df565b610cc49190613528565b90506000620f4240655af3107a4000610cdd9190613528565b905060008183600554600654610cf391906136df565b610cfd91906134b7565b610d079190613528565b600554610d149190613713565b90506000858411610d26576000610d33565b8584610d3291906136df565b5b905060008382600554600654610d4991906136df565b610d5391906134b7565b610d5d9190613528565b600554610d6a9190613713565b905060006002888584610d7d9190613713565b610d8791906134b7565b610d919190613528565b9050809650505050505050919050565b610da9612941565b610db1612a18565b600c60149054906101000a900460ff1615610e01576040517f08c379a0000000000000000000000000000000000000000000000000000000008152600401610df890613793565b60405180910390fd5b600073ffffffffffffffffffffffffffffffffffffffff16600b60009054906101000a900473ffffffffffffffffffffffffffffffffffffffff1673ffffffffffffffffffffffffffffffffffffffff1603610e92576040517f08c379a0000000000000000000000000000000000000000000000000000000008152600401610e89906137ff565b60405180910390fd5b6000600260009054906101000a900473ffffffffffffffffffffffffffffffffffffffff1673ffffffffffffffffffffffffffffffffffffffff166370a08231306040518263ffffffff1660e01b8152600401610eef91906133f3565b602060405180830381865afa158015610f0c573d6000803e3d6000fd5b505050506040513d601f19601f82011682018060405250810190610f3091906135da565b90506000479050600082118015610f475750600081115b610f86576040517f08c379a0000000000000000000000000000000000000000000000000000000008152600401610f7d9061386b565b60405180910390fd5b600260009054906101000a900473ffffffffffffffffffffffffffffffffffffffff1673ffffffffffffffffffffffffffffffffffffffff1663095ea7b3600b60009054906101000a900473ffffffffffffffffffffffffffffffffffffffff16846040518363ffffffff1660e01b815260040161100592919061388b565b6020604051808303816000875af1158015611024573d6000803e3d6000fd5b505050506040513d601f19601f8201168201806040525081019061104891906138e0565b506000600b60009054906101000a900473ffffffffffffffffffffffffffffffffffffffff1673ffffffffffffffffffffffffffffffffffffffff1663561c111e83600260009054906101000a900473ffffffffffffffffffffffffffffffffffffffff16866040518463ffffffff1660e01b81526004016110cb92919061388b565b60206040518083038185885af11580156110e9573d6000803e3d6000fd5b50505050506040513d601f19601f8201168201806040525081019061110e9190613922565b90506001600c60146101000a81548160ff02191690831515021790555080600c60006101000a81548173ffffffffffffffffffffffffffffffffffffffff021916908373ffffffffffffffffffffffffffffffffffffffff1602179055507fcff2ec0ebdec5701ad23dad19d93ff362d067f52080fff6dad87c40a534653ac81848460405161119f9392919061394f565b60405180910390a1505050565b600080600080655af3107a400093506004546003546111cb91906136df565b92508284116111db5760006111e8565b82846111e791906136df565b5b9150836103e8846111f991906134b7565b6112039190613528565b905090919293565b600d8060000154908060010154908060020154908060030160009054906101000a900460ff16905084565b61123e612941565b611246612a58565b565b60075481565b611256612941565b600073ffffffffffffffffffffffffffffffffffffffff168173ffffffffffffffffffffffffffffffffffffffff16036112c5576040517f08c379a00000000000000000000000000000000000000000000000000000000081526004016112bc906139d2565b60405180910390fd5b80600b60006101000a81548173ffffffffffffffffffffffffffffffffffffffff021916908373ffffffffffffffffffffffffffffffffffffffff1602179055507f191b3e86916e9448c9bdf8fa73512ab274e29fcca4332ad11a1f295808e201148160405161133591906133f3565b60405180910390a150565b611348612941565b6113506129c8565b600073ffffffffffffffffffffffffffffffffffffffff168373ffffffffffffffffffffffffffffffffffffffff16036113bf576040517f08c379a00000000000000000000000000000000000000000000000000000000081526004016113b690613a3e565b60405180910390fd5b60008211806113ce5750600081115b61140d576040517f08c379a000000000000000000000000000000000000000000000000000000000815260040161140490613aaa565b60405180910390fd5b600260009054906101000a900473ffffffffffffffffffffffffffffffffffffffff1673ffffffffffffffffffffffffffffffffffffffff166370a08231306040518263ffffffff1660e01b815260040161146891906133f3565b602060405180830381865afa158015611485573d6000803e3d6000fd5b505050506040513d601f19601f820116820180604052508101906114a991906135da565b8211156114eb576040517f08c379a00000000000000000000000000000000000000000000000000000000081526004016114e290613b16565b60405180910390fd5b4781111561152e576040517f08c379a000000000000000000000000000000000000000000000000000000000815260040161152590613b82565b60405180910390fd5b600082111561161757600260009054906101000a900473ffffffffffffffffffffffffffffffffffffffff1673ffffffffffffffffffffffffffffffffffffffff1663a9059cbb84846040518363ffffffff1660e01b815260040161159492919061388b565b6020604051808303816000875af11580156115b3573d6000803e3d6000fd5b505050506040513d601f19601f820116820180604052508101906115d791906138e0565b611616576040517f08c379a000000000000000000000000000000000000000000000000000000000815260040161160d90613bee565b60405180910390fd5b5b6000811115611668578273ffffffffffffffffffffffffffffffffffffffff166108fc829081150290604051600060405180830381858888f19350505050158015611666573d6000803e3d6000fd5b505b8273ffffffffffffffffffffffffffffffffffffffff167f792df17e178028ca35d1dc4ee6b45e949ade06937d49caa7acb32962ef62a8d283836040516116b0929190613c0e565b60405180910390a26116c0612a0e565b505050565b60035481565b600080620f42406004546003546116e291906136df565b6116ec9190613528565b90506000620f4240655af3107a40006117059190613528565b90506000818360055460065461171b91906136df565b61172591906134b7565b61172f9190613528565b60055461173c9190613713565b90506000858461174c9190613713565b90508281111561175a578290505b6000838260055460065461176e91906136df565b61177891906134b7565b6117829190613528565b60055461178f9190613713565b9050600060028883866117a29190613713565b6117ac91906134b7565b6117b69190613528565b9050809650505050505050919050565b6000600160149054906101000a900460ff16905090565b600080600060085447600260009054906101000a900473ffffffffffffffffffffffffffffffffffffffff1673ffffffffffffffffffffffffffffffffffffffff166370a08231306040518263ffffffff1660e01b815260040161184191906133f3565b602060405180830381865afa15801561185e573d6000803e3d6000fd5b505050506040513d601f19601f8201168201806040525081019061188291906135da565b925092509250909192565b611895612941565b600d60030160009054906101000a900460ff166118e7576040517f08c379a00000000000000000000000000000000000000000000000000000000081526004016118de90613c83565b60405180910390fd5b6000600d60030160006101000a81548160ff0219169083151502179055506000600d600001819055506000600d600101819055506000600d60020181905550565b600c60009054906101000a900473ffffffffffffffffffffffffffffffffffffffff1681565b600a60009054906101000a900473ffffffffffffffffffffffffffffffffffffffff1681565b61197c612941565b6119866000612abb565b565b6298968081565b611997612941565b61199f6129c8565b600d60030160009054906101000a900460ff166119f1576040517f08c379a00000000000000000000000000000000000000000000000000000000081526004016119e890613c83565b60405180910390fd5b62015180600d60020154611a059190613713565b421015611a47576040517f08c379a0000000000000000000000000000000000000000000000000000000008152600401611a3e90613cef565b60405180910390fd5b6000600d6000015490506000600d6001015490506000600d60030160006101000a81548160ff0219169083151502179055506000600d600001819055506000600d600101819055506000600d600201819055506000821115611b8a57600260009054906101000a900473ffffffffffffffffffffffffffffffffffffffff1673ffffffffffffffffffffffffffffffffffffffff1663a9059cbb611ae9611dc1565b846040518363ffffffff1660e01b8152600401611b0792919061388b565b6020604051808303816000875af1158015611b26573d6000803e3d6000fd5b505050506040513d601f19601f82011682018060405250810190611b4a91906138e0565b611b89576040517f08c379a0000000000000000000000000000000000000000000000000000000008152600401611b8090613bee565b60405180910390fd5b5b6000811115611be257611b9b611dc1565b73ffffffffffffffffffffffffffffffffffffffff166108fc829081150290604051600060405180830381858888f19350505050158015611be0573d6000803e3d6000fd5b505b7f7bb3225129fc9dfdc521a486bb00ec79c36e2abf9e032fab88b93e0f5cfaf0488282604051611c13929190613c0e565b60405180910390a15050611c25612a0e565b565b655af3107a400081565b600281565b600080611c42836116cb565b9050600754606482611c5491906134b7565b611c5e9190613528565b915050919050565b611c6e612941565b600073ffffffffffffffffffffffffffffffffffffffff168173ffffffffffffffffffffffffffffffffffffffff1603611cdd576040517f08c379a0000000000000000000000000000000000000000000000000000000008152600401611cd490613d5b565b60405180910390fd5b80600a60006101000a81548173ffffffffffffffffffffffffffffffffffffffff021916908373ffffffffffffffffffffffffffffffffffffffff16021790555050565b611d29612941565b611d31612b81565b565b611d3b612941565b6103e8811115611d80576040517f08c379a0000000000000000000000000000000000000000000000000000000008152600401611d7790613dc7565b60405180910390fd5b806009819055507f495ee53ee22006979ebc689a00ed737d7c13b6419142f82dcaea4ed95ac1e78081604051611db691906131cc565b60405180910390a150565b6000600160009054906101000a900473ffffffffffffffffffffffffffffffffffffffff16905090565b611df3612941565b611dfb612a18565b60008111611e3e576040517f08c379a0000000000000000000000000000000000000000000000000000000008152600401611e3590613e59565b60405180910390fd5b6006548110611e82576040517f08c379a0000000000000000000000000000000000000000000000000000000008152600401611e7990613eeb565b60405180910390fd5b806005819055507f1ebe6b7b7005f1aa69bf4d29be5021907cd512d9e0d2aa4abd10a56cb45242b981604051611eb891906131cc565b60405180910390a150565b60065481565b611ed1612941565b611ed9612a18565b6005548111611f1d576040517f08c379a0000000000000000000000000000000000000000000000000000000008152600401611f1490613f7d565b60405180910390fd5b806006819055507f8befc2dbaa473eaf770fc7fce65d45fb218ac302e5a83c7dcc9d57ecaad0697e81604051611f5391906131cc565b60405180910390a150565b600260009054906101000a900473ffffffffffffffffffffffffffffffffffffffff1681565b611f8c612be3565b611f946129c8565b60008111611fd7576040517f08c379a0000000000000000000000000000000000000000000000000000000008152600401611fce90613fe9565b60405180910390fd5b6298968081111561201d576040517f08c379a000000000000000000000000000000000000000000000000000000000815260040161201490614055565b60405180910390fd5b655af3107a4000620f42408261203391906134b7565b60045460035461204391906136df565b61204d9190613713565b111561208e576040517f08c379a0000000000000000000000000000000000000000000000000000000008152600401612085906140c1565b60405180910390fd5b6000612099826116cb565b9050803410156120de576040517f08c379a00000000000000000000000000000000000000000000000000000000081526004016120d59061412d565b60405180910390fd5b620f4240826120ed91906134b7565b600260009054906101000a900473ffffffffffffffffffffffffffffffffffffffff1673ffffffffffffffffffffffffffffffffffffffff166370a08231306040518263ffffffff1660e01b815260040161214891906133f3565b602060405180830381865afa158015612165573d6000803e3d6000fd5b505050506040513d601f19601f8201168201806040525081019061218991906135da565b10156121ca576040517f08c379a00000000000000000000000000000000000000000000000000000000081526004016121c190614199565b60405180910390fd5b600260009054906101000a900473ffffffffffffffffffffffffffffffffffffffff1673ffffffffffffffffffffffffffffffffffffffff1663a9059cbb33620f42408561221891906134b7565b6040518363ffffffff1660e01b815260040161223592919061388b565b6020604051808303816000875af1158015612254573d6000803e3d6000fd5b505050506040513d601f19601f8201168201806040525081019061227891906138e0565b50620f42408261228891906134b7565b600360008282546122999190613713565b9250508190555080600860008282546122b29190613713565b925050819055503373ffffffffffffffffffffffffffffffffffffffff167f1cbc5ab135991bd2b6a4b034a04aa2aa086dac1371cb9b16b8b5e2ed6b036bed8383604051612301929190613c0e565b60405180910390a2655af3107a400060045460035461232091906136df565b1061232e5761232d612c24565b5b80341115612389573373ffffffffffffffffffffffffffffffffffffffff166108fc823461235c91906136df565b9081150290604051600060405180830381858888f19350505050158015612387573d6000803e3d6000fd5b505b50612392612a0e565b50565b61239d612be3565b6123a56129c8565b600081116123e8576040517f08c379a00000000000000000000000000000000000000000000000000000000081526004016123df90613fe9565b60405180910390fd5b6298968081111561242e576040517f08c379a000000000000000000000000000000000000000000000000000000000815260040161242590614055565b60405180910390fd5b600c60149054906101000a900460ff1680156124995750600073ffffffffffffffffffffffffffffffffffffffff16600c60009054906101000a900473ffffffffffffffffffffffffffffffffffffffff1673ffffffffffffffffffffffffffffffffffffffff1614155b156124d9576040517f08c379a00000000000000000000000000000000000000000000000000000000081526004016124d09061422b565b60405180910390fd5b60006124e482610ca3565b90506000612710600954836124f991906134b7565b6125039190613528565b905060006002826125149190613528565b90506000818361252491906136df565b90506000838561253491906136df565b905081816125429190613713565b6008541015612586576040517f08c379a000000000000000000000000000000000000000000000000000000000815260040161257d90614297565b60405180910390fd5b82816125929190613713565b4710156125d4576040517f08c379a00000000000000000000000000000000000000000000000000000000081526004016125cb90613b82565b60405180910390fd5b600260009054906101000a900473ffffffffffffffffffffffffffffffffffffffff1673ffffffffffffffffffffffffffffffffffffffff166323b872dd3330620f42408a61262391906134b7565b6040518463ffffffff1660e01b8152600401612641939291906142b7565b6020604051808303816000875af1158015612660573d6000803e3d6000fd5b505050506040513d601f19601f8201168201806040525081019061268491906138e0565b50620f42408661269491906134b7565b600460008282546126a59190613713565b9250508190555080826008546126bb9190613713565b6126c591906136df565b6008819055503373ffffffffffffffffffffffffffffffffffffffff166108fc829081150290604051600060405180830381858888f19350505050158015612711573d6000803e3d6000fd5b50600a60009054906101000a900473ffffffffffffffffffffffffffffffffffffffff1673ffffffffffffffffffffffffffffffffffffffff166108fc849081150290604051600060405180830381858888f1935050505015801561277a573d6000803e3d6000fd5b503373ffffffffffffffffffffffffffffffffffffffff167fed7a144fad14804d5c249145e3e0e2b63a9eb455b76aee5bc92d711e9bba3e4a87836040516127c3929190613c0e565b60405180910390a2655af3107a40006004546003546127e291906136df565b106127f0576127ef612c24565b5b50505050506127fd612a0e565b50565b600b60009054906101000a900473ffffffffffffffffffffffffffffffffffffffff1681565b600080620f424060045460035461283d91906136df565b6128479190613528565b90506000620f4240655af3107a40006128609190613528565b905080821061287557600654925050506128ad565b808260055460065461288791906136df565b61289191906134b7565b61289b9190613528565b6005546128a89190613713565b925050505b90565b60045481565b600681565b6128c3612941565b600073ffffffffffffffffffffffffffffffffffffffff168173ffffffffffffffffffffffffffffffffffffffff16036129355760006040517f1e4fbdf700000000000000000000000000000000000000000000000000000000815260040161292c91906133f3565b60405180910390fd5b61293e81612abb565b50565b612949612d2f565b73ffffffffffffffffffffffffffffffffffffffff16612967611dc1565b73ffffffffffffffffffffffffffffffffffffffff16146129c65761298a612d2f565b6040517f118cdaa70000000000000000000000000000000000000000000000000000000081526004016129bd91906133f3565b60405180910390fd5b565b600260005403612a04576040517f3ee5aeb500000000000000000000000000000000000000000000000000000000815260040160405180910390fd5b6002600081905550565b6001600081905550565b612a206117c6565b612a56576040517f8dfc202b00000000000000000000000000000000000000000000000000000000815260040160405180910390fd5b565b612a60612a18565b6000600160146101000a81548160ff0219169083151502179055507f5db9ee0a495bf2e6ff9c91a7834c1ba4fdd244a5e8aa4e537bd38aeae4b073aa612aa4612d2f565b604051612ab191906133f3565b60405180910390a1565b6000600160009054906101000a900473ffffffffffffffffffffffffffffffffffffffff16905081600160006101000a81548173ffffffffffffffffffffffffffffffffffffffff021916908373ffffffffffffffffffffffffffffffffffffffff1602179055508173ffffffffffffffffffffffffffffffffffffffff168173ffffffffffffffffffffffffffffffffffffffff167f8be0079c531659141344cd1fd0a4f28419497f9722a3daafe3b4186f6b6457e060405160405180910390a35050565b612b89612be3565b60018060146101000a81548160ff0219169083151502179055507f62e78cea01bee320cd4e420270b5ea74000d11b0c9f74754ebdbfc544b05a258612bcc612d2f565b604051612bd991906133f3565b60405180910390a1565b612beb6117c6565b15612c22576040517fd93c066500000000000000000000000000000000000000000000000000000000815260040160405180910390fd5b565b600c60149054906101000a900460ff1615612c8357612c41612b81565b7f8ed12daf03921f6cf3d38d560dee47e5e323c2a96469beef3cdb39c23ef1a742600354600454604051612c76929190613c0e565b60405180910390a1612d2d565b600073ffffffffffffffffffffffffffffffffffffffff16600b60009054906101000a900473ffffffffffffffffffffffffffffffffffffffff1673ffffffffffffffffffffffffffffffffffffffff1614612ce657612ce1612d37565b612d2c565b612cee612b81565b7f8ed12daf03921f6cf3d38d560dee47e5e323c2a96469beef3cdb39c23ef1a742600354600454604051612d23929190613c0e565b60405180910390a15b5b565b600033905090565b6000600260009054906101000a900473ffffffffffffffffffffffffffffffffffffffff1673ffffffffffffffffffffffffffffffffffffffff166370a08231306040518263ffffffff1660e01b8152600401612d9491906133f3565b602060405180830381865afa158015612db1573d6000803e3d6000fd5b505050506040513d601f19601f82011682018060405250810190612dd591906135da565b90506000479050600082118015612dec5750600081115b612e2b576040517f08c379a0000000000000000000000000000000000000000000000000000000008152600401612e229061386b565b60405180910390fd5b600260009054906101000a900473ffffffffffffffffffffffffffffffffffffffff1673ffffffffffffffffffffffffffffffffffffffff1663095ea7b3600b60009054906101000a900473ffffffffffffffffffffffffffffffffffffffff16846040518363ffffffff1660e01b8152600401612eaa92919061388b565b6020604051808303816000875af1158015612ec9573d6000803e3d6000fd5b505050506040513d601f19601f82011682018060405250810190612eed91906138e0565b50600b60009054906101000a900473ffffffffffffffffffffffffffffffffffffffff1673ffffffffffffffffffffffffffffffffffffffff1663561c111e82600260009054906101000a900473ffffffffffffffffffffffffffffffffffffffff16856040518463ffffffff1660e01b8152600401612f6e92919061388b565b60206040518083038185885af193505050508015612faa57506040513d601f19601f82011682018060405250810190612fa79190613922565b60015b612ff857612fb6612b81565b7f8ed12daf03921f6cf3d38d560dee47e5e323c2a96469beef3cdb39c23ef1a742600354600454604051612feb929190613c0e565b60405180910390a16130d6565b6001600c60146101000a81548160ff02191690831515021790555080600c60006101000a81548173ffffffffffffffffffffffffffffffffffffffff021916908373ffffffffffffffffffffffffffffffffffffffff1602179055507fcff2ec0ebdec5701ad23dad19d93ff362d067f52080fff6dad87c40a534653ac8184846040516130879392919061394f565b60405180910390a1613097612b81565b7f8ed12daf03921f6cf3d38d560dee47e5e323c2a96469beef3cdb39c23ef1a7426003546004546040516130cc929190613c0e565b60405180910390a1505b5050565b600082825260208201905092915050565b7f436f6e747261637420646f6573206e6f7420616363657074206469726563742060008201527f53207472616e7366657273000000000000000000000000000000000000000000602082015250565b6000613147602b836130da565b9150613152826130eb565b604082019050919050565b600060208201905081810360008301526131768161313a565b9050919050565b60008115159050919050565b6131928161317d565b82525050565b60006020820190506131ad6000830184613189565b92915050565b6000819050919050565b6131c6816131b3565b82525050565b60006020820190506131e160008301846131bd565b92915050565b600080fd5b6131f5816131b3565b811461320057600080fd5b50565b600081359050613212816131ec565b92915050565b60006020828403121561322e5761322d6131e7565b5b600061323c84828501613203565b91505092915050565b600060808201905061325a60008301876131bd565b61326760208301866131bd565b61327460408301856131bd565b61328160608301846131bd565b95945050505050565b600060808201905061329f60008301876131bd565b6132ac60208301866131bd565b6132b960408301856131bd565b6132c66060830184613189565b95945050505050565b600073ffffffffffffffffffffffffffffffffffffffff82169050919050565b60006132fa826132cf565b9050919050565b61330a816132ef565b811461331557600080fd5b50565b60008135905061332781613301565b92915050565b600060208284031215613343576133426131e7565b5b600061335184828501613318565b91505092915050565b600080600060608486031215613373576133726131e7565b5b600061338186828701613318565b935050602061339286828701613203565b92505060406133a386828701613203565b9150509250925092565b60006060820190506133c260008301866131bd565b6133cf60208301856131bd565b6133dc60408301846131bd565b949350505050565b6133ed816132ef565b82525050565b600060208201905061340860008301846133e4565b92915050565b6000819050919050565b600061343361342e613429846132cf565b61340e565b6132cf565b9050919050565b600061344582613418565b9050919050565b60006134578261343a565b9050919050565b6134678161344c565b82525050565b6000602082019050613482600083018461345e565b92915050565b7f4e487b7100000000000000000000000000000000000000000000000000000000600052601160045260246000fd5b60006134c2826131b3565b91506134cd836131b3565b92508282026134db816131b3565b915082820484148315176134f2576134f1613488565b5b5092915050565b7f4e487b7100000000000000000000000000000000000000000000000000000000600052601260045260246000fd5b6000613533826131b3565b915061353e836131b3565b92508261354e5761354d6134f9565b5b828204905092915050565b7f5769746864726177616c20616c72656164792072657175657374656400000000600082015250565b600061358f601c836130da565b915061359a82613559565b602082019050919050565b600060208201905081810360008301526135be81613582565b9050919050565b6000815190506135d4816131ec565b92915050565b6000602082840312156135f0576135ef6131e7565b5b60006135fe848285016135c5565b91505092915050565b7f4e6f7468696e6720746f20776974686472617700000000000000000000000000600082015250565b600061363d6013836130da565b915061364882613607565b602082019050919050565b6000602082019050818103600083015261366c81613630565b9050919050565b7f53207072696365206d7573742062652067726561746572207468616e20300000600082015250565b60006136a9601e836130da565b91506136b482613673565b602082019050919050565b600060208201905081810360008301526136d88161369c565b9050919050565b60006136ea826131b3565b91506136f5836131b3565b925082820390508181111561370d5761370c613488565b5b92915050565b600061371e826131b3565b9150613729836131b3565b925082820190508082111561374157613740613488565b5b92915050565b7f506f6f6c20616c72656164792063726561746564000000000000000000000000600082015250565b600061377d6014836130da565b915061378882613747565b602082019050919050565b600060208201905081810360008301526137ac81613770565b9050919050565b7f466163746f7279206e6f74207365740000000000000000000000000000000000600082015250565b60006137e9600f836130da565b91506137f4826137b3565b602082019050919050565b60006020820190508181036000830152613818816137dc565b9050919050565b7f4e6f2061737365747320746f2063726561746520706f6f6c0000000000000000600082015250565b60006138556018836130da565b91506138608261381f565b602082019050919050565b6000602082019050818103600083015261388481613848565b9050919050565b60006040820190506138a060008301856133e4565b6138ad60208301846131bd565b9392505050565b6138bd8161317d565b81146138c857600080fd5b50565b6000815190506138da816138b4565b92915050565b6000602082840312156138f6576138f56131e7565b5b6000613904848285016138cb565b91505092915050565b60008151905061391c81613301565b92915050565b600060208284031215613938576139376131e7565b5b60006139468482850161390d565b91505092915050565b600060608201905061396460008301866133e4565b61397160208301856131bd565b61397e60408301846131bd565b949350505050565b7f496e76616c696420666163746f72792061646472657373000000000000000000600082015250565b60006139bc6017836130da565b91506139c782613986565b602082019050919050565b600060208201905081810360008301526139eb816139af565b9050919050565b7f496e76616c696420706f6f6c2061646472657373000000000000000000000000600082015250565b6000613a286014836130da565b9150613a33826139f2565b602082019050919050565b60006020820190508181036000830152613a5781613a1b565b9050919050565b7f4e6f7468696e6720746f2073656e640000000000000000000000000000000000600082015250565b6000613a94600f836130da565b9150613a9f82613a5e565b602082019050919050565b60006020820190508181036000830152613ac381613a87565b9050919050565b7f496e73756666696369656e7420313030782062616c616e636500000000000000600082015250565b6000613b006019836130da565b9150613b0b82613aca565b602082019050919050565b60006020820190508181036000830152613b2f81613af3565b9050919050565b7f496e73756666696369656e7420532062616c616e636500000000000000000000600082015250565b6000613b6c6016836130da565b9150613b7782613b36565b602082019050919050565b60006020820190508181036000830152613b9b81613b5f565b9050919050565b7f31303078207472616e73666572206661696c6564000000000000000000000000600082015250565b6000613bd86014836130da565b9150613be382613ba2565b602082019050919050565b60006020820190508181036000830152613c0781613bcb565b9050919050565b6000604082019050613c2360008301856131bd565b613c3060208301846131bd565b9392505050565b7f4e6f20616374697665207769746864726177616c207265717565737400000000600082015250565b6000613c6d601c836130da565b9150613c7882613c37565b602082019050919050565b60006020820190508181036000830152613c9c81613c60565b9050919050565b7f54696d656c6f636b206e6f742065787069726564000000000000000000000000600082015250565b6000613cd96014836130da565b9150613ce482613ca3565b602082019050919050565b60006020820190508181036000830152613d0881613ccc565b9050919050565b7f496e76616c6964206a61636b706f742061646472657373000000000000000000600082015250565b6000613d456017836130da565b9150613d5082613d0f565b602082019050919050565b60006020820190508181036000830152613d7481613d38565b9050919050565b7f46656520746f6f20686967680000000000000000000000000000000000000000600082015250565b6000613db1600c836130da565b9150613dbc82613d7b565b602082019050919050565b60006020820190508181036000830152613de081613da4565b9050919050565b7f496e697469616c207072696365206d757374206265206772656174657220746860008201527f616e203000000000000000000000000000000000000000000000000000000000602082015250565b6000613e436024836130da565b9150613e4e82613de7565b604082019050919050565b60006020820190508181036000830152613e7281613e36565b9050919050565b7f496e697469616c207072696365206d757374206265206c657373207468616e2060008201527f66696e616c207072696365000000000000000000000000000000000000000000602082015250565b6000613ed5602b836130da565b9150613ee082613e79565b604082019050919050565b60006020820190508181036000830152613f0481613ec8565b9050919050565b7f46696e616c207072696365206d7573742062652067726561746572207468616e60008201527f20696e697469616c207072696365000000000000000000000000000000000000602082015250565b6000613f67602e836130da565b9150613f7282613f0b565b604082019050919050565b60006020820190508181036000830152613f9681613f5a565b9050919050565b7f416d6f756e74206d7573742062652067726561746572207468616e2030000000600082015250565b6000613fd3601d836130da565b9150613fde82613f9d565b602082019050919050565b6000602082019050818103600083015261400281613fc6565b9050919050565b7f416d6f756e7420746f6f206c6172676500000000000000000000000000000000600082015250565b600061403f6010836130da565b915061404a82614009565b602082019050919050565b6000602082019050818103600083015261406e81614032565b9050919050565b7f45786365656473207468726573686f6c64000000000000000000000000000000600082015250565b60006140ab6011836130da565b91506140b682614075565b602082019050919050565b600060208201905081810360008301526140da8161409e565b9050919050565b7f496e73756666696369656e7420532073656e7400000000000000000000000000600082015250565b60006141176013836130da565b9150614122826140e1565b602082019050919050565b600060208201905081810360008301526141468161410a565b9050919050565b7f496e73756666696369656e74203130307820696e20706f6f6c00000000000000600082015250565b60006141836019836130da565b915061418e8261414d565b602082019050919050565b600060208201905081810360008301526141b281614176565b9050919050565b7f426f6e64696e6720637572766520636c6f7365642c20757365206c697175696460008201527f69747920706f6f6c000000000000000000000000000000000000000000000000602082015250565b60006142156028836130da565b9150614220826141b9565b604082019050919050565b6000602082019050818103600083015261424481614208565b9050919050565b7f496e73756666696369656e7420706f6f6c205300000000000000000000000000600082015250565b60006142816013836130da565b915061428c8261424b565b602082019050919050565b600060208201905081810360008301526142b081614274565b9050919050565b60006060820190506142cc60008301866133e4565b6142d960208301856133e4565b6142e660408301846131bd565b94935050505056fea26469706673582212202661a3545a9f3034c53caeb73f8618d7b608d1d3655d1162806d3c60347096e564736f6c634300081c0033",
  "linkReferences": {},
  "deployedLinkReferences": {}
}