{
  "_format": "hh-sol-artifact-1",
  "contractName": "JackpotGame",
  "sourceName": "contracts/JackpotGameSlim.sol",
  "abi": [
    {
      "inputs": [
        {
          "internalType": "address",
          "name": "_gameToken",
          "type": "address"
        },
        {
          "internalType": "address",
          "name": "_bondingCurve",
          "type": "address"
        },
        {
          "internalType": "address",
          "name": "_marketingWallet",
          "type": "address"
        }
      ],
      "stateMutability": "nonpayable",
      "type": "constructor"
    },
    {
      "inputs": [],
      "name": "AccessControlBadConfirmation",
      "type": "error"
    },
    {
      "inputs": [
        {
          "internalType": "address",
          "name": "account",
          "type": "address"
        },
        {
          "internalType": "bytes32",
          "name": "neededRole",
          "type": "bytes32"
        }
      ],
      "name": "AccessControlUnauthorizedAccount",
      "type": "error"
    },
    {
      "inputs": [],
      "name": "EnforcedPause",
      "type": "error"
    },
    {
      "inputs": [],
      "name": "ExpectedPause",
      "type": "error"
    },
    {
      "inputs": [],
      "name": "ReentrancyGuardReentrantCall",
      "type": "error"
    },
    {
      "anonymous": false,
      "inputs": [
        {
          "indexed": false,
          "internalType": "string",
          "name": "message",
          "type": "string"
        }
      ],
      "name": "GameUpdate",
      "type": "event"
    },
    {
      "anonymous": false,
      "inputs": [
        {
          "indexed": true,
          "internalType": "address",
          "name": "player",
          "type": "address"
        },
        {
          "indexed": false,
          "internalType": "bytes32",
          "name": "commitment",
          "type": "bytes32"
        }
      ],
      "name": "GuessCommitted",
      "type": "event"
    },
    {
      "anonymous": false,
      "inputs": [
        {
          "indexed": true,
          "internalType": "address",
          "name": "player",
          "type": "address"
        },
        {
          "indexed": false,
          "internalType": "string",
          "name": "guess",
          "type": "string"
        },
        {
          "indexed": false,
          "internalType": "bool",
          "name": "won",
          "type": "bool"
        }
      ],
      "name": "GuessRevealed",
      "type": "event"
    },
    {
      "anonymous": false,
      "inputs": [
        {
          "indexed": false,
          "internalType": "uint256",
          "name": "index",
          "type": "uint256"
        },
        {
          "indexed": false,
          "internalType": "string",
          "name": "hint",
          "type": "string"
        }
      ],
      "name": "HintAdded",
      "type": "event"
    },
    {
      "anonymous": false,
      "inputs": [
        {
          "indexed": true,
          "internalType": "address",
          "name": "player",
          "type": "address"
        },
        {
          "indexed": false,
          "internalType": "uint256",
          "name": "hintIndex",
          "type": "uint256"
        }
      ],
      "name": "HintRequested",
      "type": "event"
    },
    {
      "anonymous": false,
      "inputs": [
        {
          "indexed": true,
          "internalType": "address",
          "name": "winner",
          "type": "address"
        },
        {
          "indexed": false,
          "internalType": "uint256",
          "name": "amount",
          "type": "uint256"
        },
        {
          "indexed": false,
          "internalType": "string",
          "name": "guess",
          "type": "string"
        }
      ],
      "name": "JackpotWon",
      "type": "event"
    },
    {
      "anonymous": false,
      "inputs": [
        {
          "indexed": true,
          "internalType": "address",
          "name": "player",
          "type": "address"
        }
      ],
      "name": "NewPlayer",
      "type": "event"
    },
    {
      "anonymous": false,
      "inputs": [
        {
          "indexed": false,
          "internalType": "address",
          "name": "account",
          "type": "address"
        }
      ],
      "name": "Paused",
      "type": "event"
    },
    {
      "anonymous": false,
      "inputs": [
        {
          "indexed": true,
          "internalType": "bytes32",
          "name": "role",
          "type": "bytes32"
        },
        {
          "indexed": true,
          "internalType": "bytes32",
          "name": "previousAdminRole",
          "type": "bytes32"
        },
        {
          "indexed": true,
          "internalType": "bytes32",
          "name": "newAdminRole",
          "type": "bytes32"
        }
      ],
      "name": "RoleAdminChanged",
      "type": "event"
    },
    {
      "anonymous": false,
      "inputs": [
        {
          "indexed": true,
          "internalType": "bytes32",
          "name": "role",
          "type": "bytes32"
        },
        {
          "indexed": true,
          "internalType": "address",
          "name": "account",
          "type": "address"
        },
        {
          "indexed": true,
          "internalType": "address",
          "name": "sender",
          "type": "address"
        }
      ],
      "name": "RoleGranted",
      "type": "event"
    },
    {
      "anonymous": false,
      "inputs": [
        {
          "indexed": true,
          "internalType": "bytes32",
          "name": "role",
          "type": "bytes32"
        },
        {
          "indexed": true,
          "internalType": "address",
          "name": "account",
          "type": "address"
        },
        {
          "indexed": true,
          "internalType": "address",
          "name": "sender",
          "type": "address"
        }
      ],
      "name": "RoleRevoked",
      "type": "event"
    },
    {
      "anonymous": false,
      "inputs": [
        {
          "indexed": false,
          "internalType": "string",
          "name": "announcementType",
          "type": "string"
        },
        {
          "indexed": false,
          "internalType": "string",
          "name": "message",
          "type": "string"
        }
      ],
      "name": "SocialAnnouncement",
      "type": "event"
    },
    {
      "anonymous": false,
      "inputs": [
        {
          "indexed": false,
          "internalType": "address",
          "name": "account",
          "type": "address"
        }
      ],
      "name": "Unpaused",
      "type": "event"
    },
    {
      "inputs": [],
      "name": "DEFAI_AGENT_ROLE",
      "outputs": [
        {
          "internalType": "bytes32",
          "name": "",
          "type": "bytes32"
        }
      ],
      "stateMutability": "view",
      "type": "function"
    },
    {
      "inputs": [],
      "name": "DEFAULT_ADMIN_ROLE",
      "outputs": [
        {
          "internalType": "bytes32",
          "name": "",
          "type": "bytes32"
        }
      ],
      "stateMutability": "view",
      "type": "function"
    },
    {
      "inputs": [],
      "name": "HINT_MANAGER_ROLE",
      "outputs": [
        {
          "internalType": "bytes32",
          "name": "",
          "type": "bytes32"
        }
      ],
      "stateMutability": "view",
      "type": "function"
    },
    {
      "inputs": [],
      "name": "PASSWORD_SETTER_ROLE",
      "outputs": [
        {
          "internalType": "bytes32",
          "name": "",
          "type": "bytes32"
        }
      ],
      "stateMutability": "view",
      "type": "function"
    },
    {
      "inputs": [],
      "name": "accumulated100X",
      "outputs": [
        {
          "internalType": "uint256",
          "name": "",
          "type": "uint256"
        }
      ],
      "stateMutability": "view",
      "type": "function"
    },
    {
      "inputs": [
        {
          "internalType": "string",
          "name": "_hint",
          "type": "string"
        }
      ],
      "name": "addHint",
      "outputs": [],
      "stateMutability": "nonpayable",
      "type": "function"
    },
    {
      "inputs": [],
      "name": "batchInterval",
      "outputs": [
        {
          "internalType": "uint256",
          "name": "",
          "type": "uint256"
        }
      ],
      "stateMutability": "view",
      "type": "function"
    },
    {
      "inputs": [],
      "name": "bondingCurve",
      "outputs": [
        {
          "internalType": "contract IBondingCurve",
          "name": "",
          "type": "address"
        }
      ],
      "stateMutability": "view",
      "type": "function"
    },
    {
      "inputs": [],
      "name": "burnPercent",
      "outputs": [
        {
          "internalType": "uint256",
          "name": "",
          "type": "uint256"
        }
      ],
      "stateMutability": "view",
      "type": "function"
    },
    {
      "inputs": [
        {
          "internalType": "address",
          "name": "",
          "type": "address"
        }
      ],
      "name": "commitBlocks",
      "outputs": [
        {
          "internalType": "uint256",
          "name": "",
          "type": "uint256"
        }
      ],
      "stateMutability": "view",
      "type": "function"
    },
    {
      "inputs": [
        {
          "internalType": "bytes32",
          "name": "_commitment",
          "type": "bytes32"
        }
      ],
      "name": "commitGuess",
      "outputs": [],
      "stateMutability": "nonpayable",
      "type": "function"
    },
    {
      "inputs": [
        {
          "internalType": "address",
          "name": "",
          "type": "address"
        }
      ],
      "name": "commitments",
      "outputs": [
        {
          "internalType": "bytes32",
          "name": "",
          "type": "bytes32"
        }
      ],
      "stateMutability": "view",
      "type": "function"
    },
    {
      "inputs": [],
      "name": "defaiAgent",
      "outputs": [
        {
          "internalType": "address",
          "name": "",
          "type": "address"
        }
      ],
      "stateMutability": "view",
      "type": "function"
    },
    {
      "inputs": [
        {
          "internalType": "string",
          "name": "_message",
          "type": "string"
        }
      ],
      "name": "emitGameUpdate",
      "outputs": [],
      "stateMutability": "nonpayable",
      "type": "function"
    },
    {
      "inputs": [],
      "name": "fundJackpot",
      "outputs": [],
      "stateMutability": "payable",
      "type": "function"
    },
    {
      "inputs": [],
      "name": "gameToken",
      "outputs": [
        {
          "internalType": "contract IERC20",
          "name": "",
          "type": "address"
        }
      ],
      "stateMutability": "view",
      "type": "function"
    },
    {
      "inputs": [],
      "name": "getGameStats",
      "outputs": [
        {
          "internalType": "uint256",
          "name": "",
          "type": "uint256"
        },
        {
          "internalType": "uint256",
          "name": "",
          "type": "uint256"
        },
        {
          "internalType": "uint256",
          "name": "",
          "type": "uint256"
        },
        {
          "internalType": "uint256",
          "name": "",
          "type": "uint256"
        }
      ],
      "stateMutability": "view",
      "type": "function"
    },
    {
      "inputs": [
        {
          "internalType": "uint256",
          "name": "index",
          "type": "uint256"
        }
      ],
      "name": "getHint",
      "outputs": [
        {
          "internalType": "string",
          "name": "",
          "type": "string"
        }
      ],
      "stateMutability": "view",
      "type": "function"
    },
    {
      "inputs": [
        {
          "internalType": "bytes32",
          "name": "role",
          "type": "bytes32"
        }
      ],
      "name": "getRoleAdmin",
      "outputs": [
        {
          "internalType": "bytes32",
          "name": "",
          "type": "bytes32"
        }
      ],
      "stateMutability": "view",
      "type": "function"
    },
    {
      "inputs": [],
      "name": "getSplit",
      "outputs": [
        {
          "internalType": "uint256",
          "name": "",
          "type": "uint256"
        },
        {
          "internalType": "uint256",
          "name": "",
          "type": "uint256"
        },
        {
          "internalType": "uint256",
          "name": "",
          "type": "uint256"
        },
        {
          "internalType": "uint256",
          "name": "",
          "type": "uint256"
        }
      ],
      "stateMutability": "view",
      "type": "function"
    },
    {
      "inputs": [
        {
          "internalType": "bytes32",
          "name": "role",
          "type": "bytes32"
        },
        {
          "internalType": "address",
          "name": "account",
          "type": "address"
        }
      ],
      "name": "grantRole",
      "outputs": [],
      "stateMutability": "nonpayable",
      "type": "function"
    },
    {
      "inputs": [],
      "name": "guessCost",
      "outputs": [
        {
          "internalType": "uint256",
          "name": "",
          "type": "uint256"
        }
      ],
      "stateMutability": "view",
      "type": "function"
    },
    {
      "inputs": [
        {
          "internalType": "address",
          "name": "",
          "type": "address"
        }
      ],
      "name": "hasPlayed",
      "outputs": [
        {
          "internalType": "bool",
          "name": "",
          "type": "bool"
        }
      ],
      "stateMutability": "view",
      "type": "function"
    },
    {
      "inputs": [
        {
          "internalType": "bytes32",
          "name": "role",
          "type": "bytes32"
        },
        {
          "internalType": "address",
          "name": "account",
          "type": "address"
        }
      ],
      "name": "hasRole",
      "outputs": [
        {
          "internalType": "bool",
          "name": "",
          "type": "bool"
        }
      ],
      "stateMutability": "view",
      "type": "function"
    },
    {
      "inputs": [],
      "name": "hintCost",
      "outputs": [
        {
          "internalType": "uint256",
          "name": "",
          "type": "uint256"
        }
      ],
      "stateMutability": "view",
      "type": "function"
    },
    {
      "inputs": [],
      "name": "hintCount",
      "outputs": [
        {
          "internalType": "uint256",
          "name": "",
          "type": "uint256"
        }
      ],
      "stateMutability": "view",
      "type": "function"
    },
    {
      "inputs": [
        {
          "internalType": "uint256",
          "name": "",
          "type": "uint256"
        }
      ],
      "name": "hints",
      "outputs": [
        {
          "internalType": "string",
          "name": "",
          "type": "string"
        }
      ],
      "stateMutability": "view",
      "type": "function"
    },
    {
      "inputs": [],
      "name": "jackpotAmount",
      "outputs": [
        {
          "internalType": "uint256",
          "name": "",
          "type": "uint256"
        }
      ],
      "stateMutability": "view",
      "type": "function"
    },
    {
      "inputs": [],
      "name": "jackpotPercent",
      "outputs": [
        {
          "internalType": "uint256",
          "name": "",
          "type": "uint256"
        }
      ],
      "stateMutability": "view",
      "type": "function"
    },
    {
      "inputs": [],
      "name": "lastBatchTime",
      "outputs": [
        {
          "internalType": "uint256",
          "name": "",
          "type": "uint256"
        }
      ],
      "stateMutability": "view",
      "type": "function"
    },
    {
      "inputs": [],
      "name": "lastWinTime",
      "outputs": [
        {
          "internalType": "uint256",
          "name": "",
          "type": "uint256"
        }
      ],
      "stateMutability": "view",
      "type": "function"
    },
    {
      "inputs": [],
      "name": "lastWinner",
      "outputs": [
        {
          "internalType": "address",
          "name": "",
          "type": "address"
        }
      ],
      "stateMutability": "view",
      "type": "function"
    },
    {
      "inputs": [],
      "name": "marketingPercent",
      "outputs": [
        {
          "internalType": "uint256",
          "name": "",
          "type": "uint256"
        }
      ],
      "stateMutability": "view",
      "type": "function"
    },
    {
      "inputs": [],
      "name": "marketingWallet",
      "outputs": [
        {
          "internalType": "address",
          "name": "",
          "type": "address"
        }
      ],
      "stateMutability": "view",
      "type": "function"
    },
    {
      "inputs": [],
      "name": "nextJackpotAmount",
      "outputs": [
        {
          "internalType": "uint256",
          "name": "",
          "type": "uint256"
        }
      ],
      "stateMutability": "view",
      "type": "function"
    },
    {
      "inputs": [],
      "name": "nextJackpotPercent",
      "outputs": [
        {
          "internalType": "uint256",
          "name": "",
          "type": "uint256"
        }
      ],
      "stateMutability": "view",
      "type": "function"
    },
    {
      "inputs": [],
      "name": "pause",
      "outputs": [],
      "stateMutability": "nonpayable",
      "type": "function"
    },
    {
      "inputs": [],
      "name": "paused",
      "outputs": [
        {
          "internalType": "bool",
          "name": "",
          "type": "bool"
        }
      ],
      "stateMutability": "view",
      "type": "function"
    },
    {
      "inputs": [
        {
          "internalType": "address",
          "name": "",
          "type": "address"
        }
      ],
      "name": "playerGuesses",
      "outputs": [
        {
          "internalType": "uint256",
          "name": "",
          "type": "uint256"
        }
      ],
      "stateMutability": "view",
      "type": "function"
    },
    {
      "inputs": [
        {
          "internalType": "bytes32",
          "name": "role",
          "type": "bytes32"
        },
        {
          "internalType": "address",
          "name": "callerConfirmation",
          "type": "address"
        }
      ],
      "name": "renounceRole",
      "outputs": [],
      "stateMutability": "nonpayable",
      "type": "function"
    },
    {
      "inputs": [],
      "name": "requestHint",
      "outputs": [],
      "stateMutability": "nonpayable",
      "type": "function"
    },
    {
      "inputs": [],
      "name": "revealDelay",
      "outputs": [
        {
          "internalType": "uint256",
          "name": "",
          "type": "uint256"
        }
      ],
      "stateMutability": "view",
      "type": "function"
    },
    {
      "inputs": [
        {
          "internalType": "string",
          "name": "_guess",
          "type": "string"
        },
        {
          "internalType": "bytes32",
          "name": "_nonce",
          "type": "bytes32"
        }
      ],
      "name": "revealGuess",
      "outputs": [],
      "stateMutability": "nonpayable",
      "type": "function"
    },
    {
      "inputs": [
        {
          "internalType": "bytes32",
          "name": "role",
          "type": "bytes32"
        },
        {
          "internalType": "address",
          "name": "account",
          "type": "address"
        }
      ],
      "name": "revokeRole",
      "outputs": [],
      "stateMutability": "nonpayable",
      "type": "function"
    },
    {
      "inputs": [],
      "name": "salt",
      "outputs": [
        {
          "internalType": "bytes32",
          "name": "",
          "type": "bytes32"
        }
      ],
      "stateMutability": "view",
      "type": "function"
    },
    {
      "inputs": [],
      "name": "secretHash",
      "outputs": [
        {
          "internalType": "bytes32",
          "name": "",
          "type": "bytes32"
        }
      ],
      "stateMutability": "view",
      "type": "function"
    },
    {
      "inputs": [
        {
          "internalType": "uint256",
          "name": "_guessCost",
          "type": "uint256"
        },
        {
          "internalType": "uint256",
          "name": "_hintCost",
          "type": "uint256"
        }
      ],
      "name": "setCosts",
      "outputs": [],
      "stateMutability": "nonpayable",
      "type": "function"
    },
    {
      "inputs": [
        {
          "internalType": "address",
          "name": "_agent",
          "type": "address"
        }
      ],
      "name": "setDefaiAgent",
      "outputs": [],
      "stateMutability": "nonpayable",
      "type": "function"
    },
    {
      "inputs": [
        {
          "internalType": "address",
          "name": "_newWallet",
          "type": "address"
        }
      ],
      "name": "setMarketingWallet",
      "outputs": [],
      "stateMutability": "nonpayable",
      "type": "function"
    },
    {
      "inputs": [
        {
          "internalType": "bytes32",
          "name": "_hashedSecret",
          "type": "bytes32"
        },
        {
          "internalType": "bytes32",
          "name": "_newSalt",
          "type": "bytes32"
        }
      ],
      "name": "setSecretHash",
      "outputs": [],
      "stateMutability": "nonpayable",
      "type": "function"
    },
    {
      "inputs": [
        {
          "internalType": "bytes4",
          "name": "interfaceId",
          "type": "bytes4"
        }
      ],
      "name": "supportsInterface",
      "outputs": [
        {
          "internalType": "bool",
          "name": "",
          "type": "bool"
        }
      ],
      "stateMutability": "view",
      "type": "function"
    },
    {
      "inputs": [],
      "name": "totalGuesses",
      "outputs": [
        {
          "internalType": "uint256",
          "name": "",
          "type": "uint256"
        }
      ],
      "stateMutability": "view",
      "type": "function"
    },
    {
      "inputs": [],
      "name": "totalWinners",
      "outputs": [
        {
          "internalType": "uint256",
          "name": "",
          "type": "uint256"
        }
      ],
      "stateMutability": "view",
      "type": "function"
    },
    {
      "inputs": [],
      "name": "uniquePlayers",
      "outputs": [
        {
          "internalType": "uint256",
          "name": "",
          "type": "uint256"
        }
      ],
      "stateMutability": "view",
      "type": "function"
    },
    {
      "inputs": [],
      "name": "unpause",
      "outputs": [],
      "stateMutability": "nonpayable",
      "type": "function"
    },
    {
      "inputs": [
        {
          "internalType": "uint256",
          "name": "_burn",
          "type": "uint256"
        },
        {
          "internalType": "uint256",
          "name": "_jackpot",
          "type": "uint256"
        },
        {
          "internalType": "uint256",
          "name": "_next",
          "type": "uint256"
        },
        {
          "internalType": "uint256",
          "name": "_marketing",
          "type": "uint256"
        }
      ],
      "name": "updateSplit",
      "outputs": [],
      "stateMutability": "nonpayable",
      "type": "function"
    },
    {
      "stateMutability": "payable",
      "type": "receive"
    }
  ],
  "bytecode": "0x6080604052601e601555602d601655600f601755600a60185534801561002457600080fd5b50604051614a45380380614a45833981810160405281019061004691906104ef565b600180819055506000600260006101000a81548160ff021916908315150217905550600073ffffffffffffffffffffffffffffffffffffffff168373ffffffffffffffffffffffffffffffffffffffff16036100d7576040517f08c379a00000000000000000000000000000000000000000000000000000000081526004016100ce9061059f565b60405180910390fd5b600073ffffffffffffffffffffffffffffffffffffffff168273ffffffffffffffffffffffffffffffffffffffff1603610146576040517f08c379a000000000000000000000000000000000000000000000000000000000815260040161013d9061060b565b60405180910390fd5b600073ffffffffffffffffffffffffffffffffffffffff168173ffffffffffffffffffffffffffffffffffffffff16036101b5576040517f08c379a00000000000000000000000000000000000000000000000000000000081526004016101ac90610677565b60405180910390fd5b82600260016101000a81548173ffffffffffffffffffffffffffffffffffffffff021916908373ffffffffffffffffffffffffffffffffffffffff16021790555081600360006101000a81548173ffffffffffffffffffffffffffffffffffffffff021916908373ffffffffffffffffffffffffffffffffffffffff16021790555080600460006101000a81548173ffffffffffffffffffffffffffffffffffffffff021916908373ffffffffffffffffffffffffffffffffffffffff1602179055506402540be40060068190555064012a05f200600781905550600a60088190555042600f819055506102b26000801b3361031d60201b60201c565b506102e37f89b740285894f4ac12958a00aee67daad775ca9e28f2bbb8e4efa59055a26ce43361031d60201b60201c565b506103147fa20b93c4f8376a28d7eddb03920c03f147dd0d958ce891a985cc4d83ec1ecfa73361031d60201b60201c565b50505050610697565b600061032f838361041a60201b60201c565b61040f57600160008085815260200190815260200160002060000160008473ffffffffffffffffffffffffffffffffffffffff1673ffffffffffffffffffffffffffffffffffffffff16815260200190815260200160002060006101000a81548160ff0219169083151502179055506103ac61048460201b60201c565b73ffffffffffffffffffffffffffffffffffffffff168273ffffffffffffffffffffffffffffffffffffffff16847f2f8788117e7eff1d82e926ec794901d17c78024a50270940304540a733656f0d60405160405180910390a460019050610414565b600090505b92915050565b600080600084815260200190815260200160002060000160008373ffffffffffffffffffffffffffffffffffffffff1673ffffffffffffffffffffffffffffffffffffffff16815260200190815260200160002060009054906101000a900460ff16905092915050565b600033905090565b600080fd5b600073ffffffffffffffffffffffffffffffffffffffff82169050919050565b60006104bc82610491565b9050919050565b6104cc816104b1565b81146104d757600080fd5b50565b6000815190506104e9816104c3565b92915050565b6000806000606084860312156105085761050761048c565b5b6000610516868287016104da565b9350506020610527868287016104da565b9250506040610538868287016104da565b9150509250925092565b600082825260208201905092915050565b7f496e76616c696420746f6b656e20616464726573730000000000000000000000600082015250565b6000610589601583610542565b915061059482610553565b602082019050919050565b600060208201905081810360008301526105b88161057c565b9050919050565b7f496e76616c696420637572766520616464726573730000000000000000000000600082015250565b60006105f5601583610542565b9150610600826105bf565b602082019050919050565b60006020820190508181036000830152610624816105e8565b9050919050565b7f496e76616c69642077616c6c6574206164647265737300000000000000000000600082015250565b6000610661601683610542565b915061066c8261062b565b602082019050919050565b6000602082019050818103600083015261069081610654565b9050919050565b61439f806106a66000396000f3fe60806040526004361061036e5760003560e01c80638608baea116101c6578063bfa0b133116100f7578063d8020a1811610095578063e5efd5851161006f578063e5efd58514610c90578063e8fcf72314610cbb578063eff1d50e14610cf8578063fe18818414610d23576103ae565b8063d8020a1814610bff578063db58990714610c2a578063dd2abd9914610c53576103ae565b8063d11057b3116100d1578063d11057b314610b57578063d29e680314610b80578063d5255f9414610bab578063d547741f14610bd6576103ae565b8063bfa0b13314610ad6578063c3dfdae614610b01578063c732273014610b2c576103ae565b8063a8a6a98411610164578063bcc941b61161013e578063bcc941b614610a5f578063bd23774114610a8a578063bf4637e514610a94578063bf6aca7314610abf576103ae565b8063a8a6a984146109de578063b145421814610a09578063b1eac37e14610a34576103ae565b806391d14854116101a057806391d1485414610922578063975d063d1461095f578063a217fddf1461098a578063a39cbff2146109b5576103ae565b80638608baea146108a35780638ef28249146108ce57806390676ddd146108f9576103ae565b806336568abe116102a05780636972bbdf1161023e578063714aa16611610218578063714aa1661461080d57806375f0a874146108365780637ccbe9f1146108615780638456cb591461088c576103ae565b80636972bbdf1461078e5780636a3429a3146107b75780636bea9a48146107e2576103ae565b80635abf9ff91161027a5780635abf9ff9146106d45780635c975abb146107115780635d098b381461073c578063608a5d9514610765576103ae565b806336568abe146106695780633f4ba83a1461069257806353236d74146106a9576103ae565b80632344e4ec1161030d5780632c49ea20116102e75780632c49ea20146105ad5780632d7ed6b7146105d85780632f2ff15d1461060357806332d0bbe31461062c576103ae565b80632344e4ec146104f657806324396bde14610533578063248a9ca314610570576103ae565b806312ab3c271161034957806312ab3c271461044657806314266cf71461047457806316e015db1461049f5780631aff30dd146104c8576103ae565b8062207875146103b357806301ffc9a7146103de57806303807ee51461041b576103ae565b366103ae576040517f08c379a00000000000000000000000000000000000000000000000000000000081526004016103a590612c32565b60405180910390fd5b600080fd5b3480156103bf57600080fd5b506103c8610d4e565b6040516103d59190612c6b565b60405180910390f35b3480156103ea57600080fd5b5061040560048036038101906104009190612cf2565b610d54565b6040516104129190612d3a565b60405180910390f35b34801561042757600080fd5b50610430610dce565b60405161043d9190612c6b565b60405180910390f35b34801561045257600080fd5b5061045b610dd4565b60405161046b9493929190612d55565b60405180910390f35b34801561048057600080fd5b50610489610df4565b6040516104969190612c6b565b60405180910390f35b3480156104ab57600080fd5b506104c660048036038101906104c19190612dc6565b610dfa565b005b3480156104d457600080fd5b506104dd610e96565b6040516104ed9493929190612d55565b60405180910390f35b34801561050257600080fd5b5061051d60048036038101906105189190612e2d565b610eb6565b60405161052a9190612ed9565b60405180910390f35b34801561053f57600080fd5b5061055a60048036038101906105559190612f59565b610f9f565b6040516105679190612c6b565b60405180910390f35b34801561057c57600080fd5b5061059760048036038101906105929190612fbc565b610fb7565b6040516105a49190612ff8565b60405180910390f35b3480156105b957600080fd5b506105c2610fd6565b6040516105cf9190612c6b565b60405180910390f35b3480156105e457600080fd5b506105ed610fdc565b6040516105fa9190612c6b565b60405180910390f35b34801561060f57600080fd5b5061062a60048036038101906106259190613013565b610fe2565b005b34801561063857600080fd5b50610653600480360381019061064e9190612f59565b611004565b6040516106609190612d3a565b60405180910390f35b34801561067557600080fd5b50610690600480360381019061068b9190613013565b611024565b005b34801561069e57600080fd5b506106a761109f565b005b3480156106b557600080fd5b506106be6110b7565b6040516106cb9190612c6b565b60405180910390f35b3480156106e057600080fd5b506106fb60048036038101906106f69190612e2d565b6110bd565b6040516107089190612ed9565b60405180910390f35b34801561071d57600080fd5b5061072661115d565b6040516107339190612d3a565b60405180910390f35b34801561074857600080fd5b50610763600480360381019061075e9190612f59565b611174565b005b34801561077157600080fd5b5061078c60048036038101906107879190612fbc565b61123d565b005b34801561079a57600080fd5b506107b560048036038101906107b09190613188565b6115d9565b005b3480156107c357600080fd5b506107cc6116ba565b6040516107d99190612ff8565b60405180910390f35b3480156107ee57600080fd5b506107f76116de565b6040516108049190612c6b565b60405180910390f35b34801561081957600080fd5b50610834600480360381019061082f9190612f59565b6116e4565b005b34801561084257600080fd5b5061084b6117d8565b60405161085891906131e0565b60405180910390f35b34801561086d57600080fd5b506108766117fe565b6040516108839190612c6b565b60405180910390f35b34801561089857600080fd5b506108a1611804565b005b3480156108af57600080fd5b506108b861181c565b6040516108c59190612ff8565b60405180910390f35b3480156108da57600080fd5b506108e3611840565b6040516108f09190612c6b565b60405180910390f35b34801561090557600080fd5b50610920600480360381019061091b9190613188565b611846565b005b34801561092e57600080fd5b5061094960048036038101906109449190613013565b61192c565b6040516109569190612d3a565b60405180910390f35b34801561096b57600080fd5b50610974611996565b6040516109819190612c6b565b60405180910390f35b34801561099657600080fd5b5061099f61199c565b6040516109ac9190612ff8565b60405180910390f35b3480156109c157600080fd5b506109dc60048036038101906109d791906131fb565b6119a3565b005b3480156109ea57600080fd5b506109f3611f12565b604051610a009190612ff8565b60405180910390f35b348015610a1557600080fd5b50610a1e611f36565b604051610a2b9190612c6b565b60405180910390f35b348015610a4057600080fd5b50610a49611f3c565b604051610a569190612c6b565b60405180910390f35b348015610a6b57600080fd5b50610a74611f42565b604051610a819190612c6b565b60405180910390f35b610a92611f48565b005b348015610aa057600080fd5b50610aa9611fe9565b604051610ab69190612c6b565b60405180910390f35b348015610acb57600080fd5b50610ad4611fef565b005b348015610ae257600080fd5b50610aeb6121e3565b604051610af89190612ff8565b60405180910390f35b348015610b0d57600080fd5b50610b166121e9565b604051610b2391906132b6565b60405180910390f35b348015610b3857600080fd5b50610b4161220f565b604051610b4e9190612c6b565b60405180910390f35b348015610b6357600080fd5b50610b7e6004803603810190610b7991906132d1565b612215565b005b348015610b8c57600080fd5b50610b9561228f565b604051610ba29190612ff8565b60405180910390f35b348015610bb757600080fd5b50610bc0612295565b604051610bcd91906131e0565b60405180910390f35b348015610be257600080fd5b50610bfd6004803603810190610bf89190613013565b6122bb565b005b348015610c0b57600080fd5b50610c146122dd565b604051610c219190612c6b565b60405180910390f35b348015610c3657600080fd5b50610c516004803603810190610c4c9190613311565b6122e3565b005b348015610c5f57600080fd5b50610c7a6004803603810190610c759190612f59565b61230b565b604051610c879190612c6b565b60405180910390f35b348015610c9c57600080fd5b50610ca5612323565b604051610cb29190612c6b565b60405180910390f35b348015610cc757600080fd5b50610ce26004803603810190610cdd9190612f59565b612329565b604051610cef9190612ff8565b60405180910390f35b348015610d0457600080fd5b50610d0d612341565b604051610d1a9190613372565b60405180910390f35b348015610d2f57600080fd5b50610d38612367565b604051610d4591906131e0565b60405180910390f35b60145481565b60007f7965db0b000000000000000000000000000000000000000000000000000000007bffffffffffffffffffffffffffffffffffffffffffffffffffffffff1916827bffffffffffffffffffffffffffffffffffffffffffffffffffffffff19161480610dc75750610dc68261238d565b5b9050919050565b60155481565b600080600080601554601654601754601854935093509350935090919293565b60175481565b6000801b610e07816123f7565b610e0f61240b565b606482848688610e1f91906133bc565b610e2991906133bc565b610e3391906133bc565b14610e73576040517f08c379a0000000000000000000000000000000000000000000000000000000008152600401610e6a9061343c565b60405180910390fd5b846015819055508360168190555082601781905550816018819055505050505050565b600080600080600c54601454601154600a54935093509350935090919293565b60606019548210610efc576040517f08c379a0000000000000000000000000000000000000000000000000000000008152600401610ef3906134a8565b60405180910390fd5b601a60008381526020019081526020016000208054610f1a906134f7565b80601f0160208091040260200160405190810160405280929190818152602001828054610f46906134f7565b8015610f935780601f10610f6857610100808354040283529160200191610f93565b820191906000526020600020905b815481529060010190602001808311610f7657829003601f168201915b50505050509050919050565b601b6020528060005260406000206000915090505481565b6000806000838152602001908152602001600020600101549050919050565b60195481565b600b5481565b610feb82610fb7565b610ff4816123f7565b610ffe838361244c565b50505050565b601e6020528060005260406000206000915054906101000a900460ff1681565b61102c61253d565b73ffffffffffffffffffffffffffffffffffffffff168173ffffffffffffffffffffffffffffffffffffffff1614611090576040517f6697b23200000000000000000000000000000000000000000000000000000000815260040160405180910390fd5b61109a8282612545565b505050565b6000801b6110ac816123f7565b6110b4612637565b50565b60085481565b601a60205280600052604060002060009150905080546110dc906134f7565b80601f0160208091040260200160405190810160405280929190818152602001828054611108906134f7565b80156111555780601f1061112a57610100808354040283529160200191611155565b820191906000526020600020905b81548152906001019060200180831161113857829003601f168201915b505050505081565b6000600260009054906101000a900460ff16905090565b6000801b611181816123f7565b61118961240b565b600073ffffffffffffffffffffffffffffffffffffffff168273ffffffffffffffffffffffffffffffffffffffff16036111f8576040517f08c379a00000000000000000000000000000000000000000000000000000000081526004016111ef90613574565b60405180910390fd5b81600460006101000a81548173ffffffffffffffffffffffffffffffffffffffff021916908373ffffffffffffffffffffffffffffffffffffffff1602179055505050565b61124561240b565b61124d61269a565b600260019054906101000a900473ffffffffffffffffffffffffffffffffffffffff1673ffffffffffffffffffffffffffffffffffffffff166323b872dd33306006546040518463ffffffff1660e01b81526004016112ae93929190613594565b6020604051808303816000875af11580156112cd573d6000803e3d6000fd5b505050506040513d601f19601f820116820180604052508101906112f191906135f7565b611330576040517f08c379a000000000000000000000000000000000000000000000000000000000815260040161132790613670565b60405180910390fd5b600c600081548092919061134390613690565b9190505550601b60003373ffffffffffffffffffffffffffffffffffffffff1673ffffffffffffffffffffffffffffffffffffffff168152602001908152602001600020600081548092919061139890613690565b919050555080601c60003373ffffffffffffffffffffffffffffffffffffffff1673ffffffffffffffffffffffffffffffffffffffff1681526020019081526020016000208190555043601d60003373ffffffffffffffffffffffffffffffffffffffff1673ffffffffffffffffffffffffffffffffffffffff16815260200190815260200160002081905550601e60003373ffffffffffffffffffffffffffffffffffffffff1673ffffffffffffffffffffffffffffffffffffffff16815260200190815260200160002060009054906101000a900460ff1661152a576001601e60003373ffffffffffffffffffffffffffffffffffffffff1673ffffffffffffffffffffffffffffffffffffffff16815260200190815260200160002060006101000a81548160ff021916908315150217905550601460008154809291906114e190613690565b91905055503373ffffffffffffffffffffffffffffffffffffffff167f52e92d4898337244a39bd42674ac561eadfd3959e947deec1c0ab82dd58b5a7560405160405180910390a25b3373ffffffffffffffffffffffffffffffffffffffff167fa9bd3f7a18c9b0610507f38284c851d30288d711a3c5424a79aaad31f16cd2e2826040516115709190612ff8565b60405180910390a26006546010600082825461158c91906133bc565b9250508190555060006009541180156115c05750603c6009546115af91906136d8565b600f546115bc91906133bc565b4210155b156115ce576115cd6126e0565b5b6115d6612ad8565b50565b7fa20b93c4f8376a28d7eddb03920c03f147dd0d958ce891a985cc4d83ec1ecfa7611603816123f7565b61160b61240b565b81601a60006019548152602001908152602001600020908161162d91906138bc565b507ffbb6abcc3d9927b2ad03b28ee7ac24843f0a403597cb51f0fd458ed9c52b910c6019548360405161166192919061398e565b60405180910390a16019600081548092919061167c90613690565b91905055507f0e30e9f5279175d80bddc0ba67b00a662b9e914d0c950f8e07e5180a7e73c7126040516116ae90613a56565b60405180910390a15050565b7fa20b93c4f8376a28d7eddb03920c03f147dd0d958ce891a985cc4d83ec1ecfa781565b60125481565b6000801b6116f1816123f7565b6116f961240b565b600073ffffffffffffffffffffffffffffffffffffffff168273ffffffffffffffffffffffffffffffffffffffff1603611768576040517f08c379a000000000000000000000000000000000000000000000000000000000815260040161175f90613ad5565b60405180910390fd5b81600560006101000a81548173ffffffffffffffffffffffffffffffffffffffff021916908373ffffffffffffffffffffffffffffffffffffffff1602179055506117d37f0f96d8d40e900718f6f1b4e1d383cdd193bc329a1fa852e567434974c6502c818361244c565b505050565b600460009054906101000a900473ffffffffffffffffffffffffffffffffffffffff1681565b60065481565b6000801b611811816123f7565b611819612ae1565b50565b7f0f96d8d40e900718f6f1b4e1d383cdd193bc329a1fa852e567434974c6502c8181565b600c5481565b61184e61240b565b600560009054906101000a900473ffffffffffffffffffffffffffffffffffffffff1673ffffffffffffffffffffffffffffffffffffffff163373ffffffffffffffffffffffffffffffffffffffff1614806118b357506118b26000801b3361192c565b5b6118f2576040517f08c379a00000000000000000000000000000000000000000000000000000000081526004016118e990613b41565b60405180910390fd5b7f6136e242d0cb60724a54385d6a94f643c97d72a6ab33a39a78e01edb5cf44170816040516119219190612ed9565b60405180910390a150565b600080600084815260200190815260200160002060000160008373ffffffffffffffffffffffffffffffffffffffff1673ffffffffffffffffffffffffffffffffffffffff16815260200190815260200160002060009054906101000a900460ff16905092915050565b60095481565b6000801b81565b6119ab61240b565b6119b361269a565b6000801b601c60003373ffffffffffffffffffffffffffffffffffffffff1673ffffffffffffffffffffffffffffffffffffffff1681526020019081526020016000205403611a37576040517f08c379a0000000000000000000000000000000000000000000000000000000008152600401611a2e90613bad565b60405180910390fd5b600854601d60003373ffffffffffffffffffffffffffffffffffffffff1673ffffffffffffffffffffffffffffffffffffffff16815260200190815260200160002054611a8491906133bc565b431015611ac6576040517f08c379a0000000000000000000000000000000000000000000000000000000008152600401611abd90613c19565b60405180910390fd5b601c60003373ffffffffffffffffffffffffffffffffffffffff1673ffffffffffffffffffffffffffffffffffffffff168152602001908152602001600020548282604051602001611b19929190613c96565b6040516020818303038152906040528051906020012014611b6f576040517f08c379a0000000000000000000000000000000000000000000000000000000008152600401611b6690613d0a565b60405180910390fd5b6000600d5483600e54604051602001611b89929190613c96565b604051602081830303815290604052805190602001201490508015611e2f5760006064605a600a54611bbb91906136d8565b611bc59190613d59565b9050600081600a54611bd79190613d8a565b90506000600b54905060006064605a83611bf191906136d8565b611bfb9190613d59565b905060006064600a84611c0e91906136d8565b611c189190613d59565b905084471015611c5d576040517f08c379a0000000000000000000000000000000000000000000000000000000008152600401611c5490613e0a565b60405180910390fd5b8184611c6991906133bc565b600a8190555080600b8190555060116000815480929190611c8990613690565b91905055504260128190555033601360006101000a81548173ffffffffffffffffffffffffffffffffffffffff021916908373ffffffffffffffffffffffffffffffffffffffff16021790555060003373ffffffffffffffffffffffffffffffffffffffff1686604051611cfc90613e5b565b60006040518083038185875af1925050503d8060008114611d39576040519150601f19603f3d011682016040523d82523d6000602084013e611d3e565b606091505b5050905080611d82576040517f08c379a0000000000000000000000000000000000000000000000000000000008152600401611d7990613ebc565b60405180910390fd5b3373ffffffffffffffffffffffffffffffffffffffff167fb41a7dcde559a617d38981e81372f9c67835bc391794d169f79797582a61295a878b604051611dca92919061398e565b60405180910390a27f0e30e9f5279175d80bddc0ba67b00a662b9e914d0c950f8e07e5180a7e73c71289604051602001611e049190613f28565b604051602081830303815290604052604051611e209190613f96565b60405180910390a15050505050505b3373ffffffffffffffffffffffffffffffffffffffff167f3c5c89ae6cea506ea9dd2e76e925e46a9ab1f5b983b1ca0fc7bf99d8b37f692e8483604051611e77929190613fcb565b60405180910390a2601c60003373ffffffffffffffffffffffffffffffffffffffff1673ffffffffffffffffffffffffffffffffffffffff16815260200190815260200160002060009055601d60003373ffffffffffffffffffffffffffffffffffffffff1673ffffffffffffffffffffffffffffffffffffffff1681526020019081526020016000206000905550611f0e612ad8565b5050565b7f89b740285894f4ac12958a00aee67daad775ca9e28f2bbb8e4efa59055a26ce481565b60105481565b600a5481565b60115481565b6000801b611f55816123f7565b60003411611f98576040517f08c379a0000000000000000000000000000000000000000000000000000000008152600401611f8f90614047565b60405180910390fd5b34600a6000828254611faa91906133bc565b925050819055507f0e30e9f5279175d80bddc0ba67b00a662b9e914d0c950f8e07e5180a7e73c712604051611fde906140ff565b60405180910390a150565b60165481565b611ff761240b565b611fff61269a565b600060195411612044576040517f08c379a000000000000000000000000000000000000000000000000000000000815260040161203b9061417e565b60405180910390fd5b600260019054906101000a900473ffffffffffffffffffffffffffffffffffffffff1673ffffffffffffffffffffffffffffffffffffffff166323b872dd33306007546040518463ffffffff1660e01b81526004016120a593929190613594565b6020604051808303816000875af11580156120c4573d6000803e3d6000fd5b505050506040513d601f19601f820116820180604052508101906120e891906135f7565b612127576040517f08c379a000000000000000000000000000000000000000000000000000000000815260040161211e90613670565b60405180910390fd5b6007546010600082825461213b91906133bc565b92505081905550600060095411801561216f5750603c60095461215e91906136d8565b600f5461216b91906133bc565b4210155b1561217d5761217c6126e0565b5b3373ffffffffffffffffffffffffffffffffffffffff167f427f1f257a5f07697d54611a89d584651a58ee23d8588fed5507427716c0616560016019546121c49190613d8a565b6040516121d19190612c6b565b60405180910390a26121e1612ad8565b565b600e5481565b600260019054906101000a900473ffffffffffffffffffffffffffffffffffffffff1681565b60075481565b7f89b740285894f4ac12958a00aee67daad775ca9e28f2bbb8e4efa59055a26ce461223f816123f7565b61224761240b565b81600e8190555082600d819055507f0e30e9f5279175d80bddc0ba67b00a662b9e914d0c950f8e07e5180a7e73c71260405161228290614236565b60405180910390a1505050565b600d5481565b600560009054906101000a900473ffffffffffffffffffffffffffffffffffffffff1681565b6122c482610fb7565b6122cd816123f7565b6122d78383612545565b50505050565b60185481565b6000801b6122f0816123f7565b6122f861240b565b8260068190555081600781905550505050565b601d6020528060005260406000206000915090505481565b600f5481565b601c6020528060005260406000206000915090505481565b600360009054906101000a900473ffffffffffffffffffffffffffffffffffffffff1681565b601360009054906101000a900473ffffffffffffffffffffffffffffffffffffffff1681565b60007f01ffc9a7000000000000000000000000000000000000000000000000000000007bffffffffffffffffffffffffffffffffffffffffffffffffffffffff1916827bffffffffffffffffffffffffffffffffffffffffffffffffffffffff1916149050919050565b6124088161240361253d565b612b44565b50565b61241361115d565b1561244a576040517fd93c066500000000000000000000000000000000000000000000000000000000815260040160405180910390fd5b565b6000612458838361192c565b61253257600160008085815260200190815260200160002060000160008473ffffffffffffffffffffffffffffffffffffffff1673ffffffffffffffffffffffffffffffffffffffff16815260200190815260200160002060006101000a81548160ff0219169083151502179055506124cf61253d565b73ffffffffffffffffffffffffffffffffffffffff168273ffffffffffffffffffffffffffffffffffffffff16847f2f8788117e7eff1d82e926ec794901d17c78024a50270940304540a733656f0d60405160405180910390a460019050612537565b600090505b92915050565b600033905090565b6000612551838361192c565b1561262c57600080600085815260200190815260200160002060000160008473ffffffffffffffffffffffffffffffffffffffff1673ffffffffffffffffffffffffffffffffffffffff16815260200190815260200160002060006101000a81548160ff0219169083151502179055506125c961253d565b73ffffffffffffffffffffffffffffffffffffffff168273ffffffffffffffffffffffffffffffffffffffff16847ff6391f5c32d9c69d2a47ea670b442974b53935d1edc7fd64eb21e047a839171b60405160405180910390a460019050612631565b600090505b92915050565b61263f612b95565b6000600260006101000a81548160ff0219169083151502179055507f5db9ee0a495bf2e6ff9c91a7834c1ba4fdd244a5e8aa4e537bd38aeae4b073aa61268361253d565b60405161269091906131e0565b60405180910390a1565b6002600154036126d6576040517f3ee5aeb500000000000000000000000000000000000000000000000000000000815260040160405180910390fd5b6002600181905550565b60006010540315612ad657600060105490506000601081905550600060646015548361270c91906136d8565b6127169190613d59565b9050600081836127269190613d8a565b90506000808311156127d657600260019054906101000a900473ffffffffffffffffffffffffffffffffffffffff1673ffffffffffffffffffffffffffffffffffffffff1663a9059cbb61dead856040518363ffffffff1660e01b8152600401612791929190614269565b6020604051808303816000875af11580156127b0573d6000803e3d6000fd5b505050506040513d601f19601f820116820180604052508101906127d491906135f7565b505b600082111561294357600260019054906101000a900473ffffffffffffffffffffffffffffffffffffffff1673ffffffffffffffffffffffffffffffffffffffff1663095ea7b3600360009054906101000a900473ffffffffffffffffffffffffffffffffffffffff16846040518363ffffffff1660e01b815260040161285e929190614269565b6020604051808303816000875af115801561287d573d6000803e3d6000fd5b505050506040513d601f19601f820116820180604052508101906128a191906135f7565b50600360009054906101000a900473ffffffffffffffffffffffffffffffffffffffff1673ffffffffffffffffffffffffffffffffffffffff1663e4849b32836040518263ffffffff1660e01b81526004016128fd9190612c6b565b6020604051808303816000875af115801561291c573d6000803e3d6000fd5b505050506040513d601f19601f8201168201806040525081019061294091906142a7565b90505b600060185460175460165461295891906133bc565b61296291906133bc565b90506000816016548461297591906136d8565b61297f9190613d59565b90506000826017548561299291906136d8565b61299c9190613d59565b9050600083601854866129af91906136d8565b6129b99190613d59565b905082600a60008282546129cd91906133bc565b9250508190555081600b60008282546129e691906133bc565b925050819055506000811115612ac6576000600460009054906101000a900473ffffffffffffffffffffffffffffffffffffffff1673ffffffffffffffffffffffffffffffffffffffff1682604051612a3e90613e5b565b60006040518083038185875af1925050503d8060008114612a7b576040519150601f19603f3d011682016040523d82523d6000602084013e612a80565b606091505b5050905080612ac4576040517f08c379a0000000000000000000000000000000000000000000000000000000008152600401612abb90614320565b60405180910390fd5b505b42600f8190555050505050505050505b565b60018081905550565b612ae961240b565b6001600260006101000a81548160ff0219169083151502179055507f62e78cea01bee320cd4e420270b5ea74000d11b0c9f74754ebdbfc544b05a258612b2d61253d565b604051612b3a91906131e0565b60405180910390a1565b612b4e828261192c565b612b915780826040517fe2517d3f000000000000000000000000000000000000000000000000000000008152600401612b88929190614340565b60405180910390fd5b5050565b612b9d61115d565b612bd3576040517f8dfc202b00000000000000000000000000000000000000000000000000000000815260040160405180910390fd5b565b600082825260208201905092915050565b7f5573652066756e644a61636b706f740000000000000000000000000000000000600082015250565b6000612c1c600f83612bd5565b9150612c2782612be6565b602082019050919050565b60006020820190508181036000830152612c4b81612c0f565b9050919050565b6000819050919050565b612c6581612c52565b82525050565b6000602082019050612c806000830184612c5c565b92915050565b6000604051905090565b600080fd5b600080fd5b60007fffffffff0000000000000000000000000000000000000000000000000000000082169050919050565b612ccf81612c9a565b8114612cda57600080fd5b50565b600081359050612cec81612cc6565b92915050565b600060208284031215612d0857612d07612c90565b5b6000612d1684828501612cdd565b91505092915050565b60008115159050919050565b612d3481612d1f565b82525050565b6000602082019050612d4f6000830184612d2b565b92915050565b6000608082019050612d6a6000830187612c5c565b612d776020830186612c5c565b612d846040830185612c5c565b612d916060830184612c5c565b95945050505050565b612da381612c52565b8114612dae57600080fd5b50565b600081359050612dc081612d9a565b92915050565b60008060008060808587031215612de057612ddf612c90565b5b6000612dee87828801612db1565b9450506020612dff87828801612db1565b9350506040612e1087828801612db1565b9250506060612e2187828801612db1565b91505092959194509250565b600060208284031215612e4357612e42612c90565b5b6000612e5184828501612db1565b91505092915050565b600081519050919050565b60005b83811015612e83578082015181840152602081019050612e68565b60008484015250505050565b6000601f19601f8301169050919050565b6000612eab82612e5a565b612eb58185612bd5565b9350612ec5818560208601612e65565b612ece81612e8f565b840191505092915050565b60006020820190508181036000830152612ef38184612ea0565b905092915050565b600073ffffffffffffffffffffffffffffffffffffffff82169050919050565b6000612f2682612efb565b9050919050565b612f3681612f1b565b8114612f4157600080fd5b50565b600081359050612f5381612f2d565b92915050565b600060208284031215612f6f57612f6e612c90565b5b6000612f7d84828501612f44565b91505092915050565b6000819050919050565b612f9981612f86565b8114612fa457600080fd5b50565b600081359050612fb681612f90565b92915050565b600060208284031215612fd257612fd1612c90565b5b6000612fe084828501612fa7565b91505092915050565b612ff281612f86565b82525050565b600060208201905061300d6000830184612fe9565b92915050565b6000806040838503121561302a57613029612c90565b5b600061303885828601612fa7565b925050602061304985828601612f44565b9150509250929050565b600080fd5b600080fd5b7f4e487b7100000000000000000000000000000000000000000000000000000000600052604160045260246000fd5b61309582612e8f565b810181811067ffffffffffffffff821117156130b4576130b361305d565b5b80604052505050565b60006130c7612c86565b90506130d3828261308c565b919050565b600067ffffffffffffffff8211156130f3576130f261305d565b5b6130fc82612e8f565b9050602081019050919050565b82818337600083830152505050565b600061312b613126846130d8565b6130bd565b90508281526020810184848401111561314757613146613058565b5b613152848285613109565b509392505050565b600082601f83011261316f5761316e613053565b5b813561317f848260208601613118565b91505092915050565b60006020828403121561319e5761319d612c90565b5b600082013567ffffffffffffffff8111156131bc576131bb612c95565b5b6131c88482850161315a565b91505092915050565b6131da81612f1b565b82525050565b60006020820190506131f560008301846131d1565b92915050565b6000806040838503121561321257613211612c90565b5b600083013567ffffffffffffffff8111156132305761322f612c95565b5b61323c8582860161315a565b925050602061324d85828601612fa7565b9150509250929050565b6000819050919050565b600061327c61327761327284612efb565b613257565b612efb565b9050919050565b600061328e82613261565b9050919050565b60006132a082613283565b9050919050565b6132b081613295565b82525050565b60006020820190506132cb60008301846132a7565b92915050565b600080604083850312156132e8576132e7612c90565b5b60006132f685828601612fa7565b925050602061330785828601612fa7565b9150509250929050565b6000806040838503121561332857613327612c90565b5b600061333685828601612db1565b925050602061334785828601612db1565b9150509250929050565b600061335c82613283565b9050919050565b61336c81613351565b82525050565b60006020820190506133876000830184613363565b92915050565b7f4e487b7100000000000000000000000000000000000000000000000000000000600052601160045260246000fd5b60006133c782612c52565b91506133d283612c52565b92508282019050808211156133ea576133e961338d565b5b92915050565b7f4d7573742073756d20746f203130300000000000000000000000000000000000600082015250565b6000613426600f83612bd5565b9150613431826133f0565b602082019050919050565b6000602082019050818103600083015261345581613419565b9050919050565b7f496e76616c69642068696e7420696e6465780000000000000000000000000000600082015250565b6000613492601283612bd5565b915061349d8261345c565b602082019050919050565b600060208201905081810360008301526134c181613485565b9050919050565b7f4e487b7100000000000000000000000000000000000000000000000000000000600052602260045260246000fd5b6000600282049050600182168061350f57607f821691505b602082108103613522576135216134c8565b5b50919050565b7f496e76616c696420616464726573730000000000000000000000000000000000600082015250565b600061355e600f83612bd5565b915061356982613528565b602082019050919050565b6000602082019050818103600083015261358d81613551565b9050919050565b60006060820190506135a960008301866131d1565b6135b660208301856131d1565b6135c36040830184612c5c565b949350505050565b6135d481612d1f565b81146135df57600080fd5b50565b6000815190506135f1816135cb565b92915050565b60006020828403121561360d5761360c612c90565b5b600061361b848285016135e2565b91505092915050565b7f5472616e73666572206661696c65640000000000000000000000000000000000600082015250565b600061365a600f83612bd5565b915061366582613624565b602082019050919050565b600060208201905081810360008301526136898161364d565b9050919050565b600061369b82612c52565b91507fffffffffffffffffffffffffffffffffffffffffffffffffffffffffffffffff82036136cd576136cc61338d565b5b600182019050919050565b60006136e382612c52565b91506136ee83612c52565b92508282026136fc81612c52565b915082820484148315176137135761371261338d565b5b5092915050565b60008190508160005260206000209050919050565b60006020601f8301049050919050565b600082821b905092915050565b60006008830261377c7fffffffffffffffffffffffffffffffffffffffffffffffffffffffffffffffff8261373f565b613786868361373f565b95508019841693508086168417925050509392505050565b60006137b96137b46137af84612c52565b613257565b612c52565b9050919050565b6000819050919050565b6137d38361379e565b6137e76137df826137c0565b84845461374c565b825550505050565b600090565b6137fc6137ef565b6138078184846137ca565b505050565b5b8181101561382b576138206000826137f4565b60018101905061380d565b5050565b601f821115613870576138418161371a565b61384a8461372f565b81016020851015613859578190505b61386d6138658561372f565b83018261380c565b50505b505050565b600082821c905092915050565b600061389360001984600802613875565b1980831691505092915050565b60006138ac8383613882565b9150826002028217905092915050565b6138c582612e5a565b67ffffffffffffffff8111156138de576138dd61305d565b5b6138e882546134f7565b6138f382828561382f565b600060209050601f8311600181146139265760008415613914578287015190505b61391e85826138a0565b865550613986565b601f1984166139348661371a565b60005b8281101561395c57848901518255600182019150602085019450602081019050613937565b868310156139795784890151613975601f891682613882565b8355505b6001600288020188555050505b505050505050565b60006040820190506139a36000830185612c5c565b81810360208301526139b58184612ea0565b90509392505050565b7f4e45575f48494e54000000000000000000000000000000000000000000000000600082015250565b60006139f4600883612bd5565b91506139ff826139be565b602082019050919050565b7f4e65772068696e7420617661696c61626c652100000000000000000000000000600082015250565b6000613a40601383612bd5565b9150613a4b82613a0a565b602082019050919050565b60006040820190508181036000830152613a6f816139e7565b90508181036020830152613a8281613a33565b9050919050565b7f496e76616c6964206167656e7420616464726573730000000000000000000000600082015250565b6000613abf601583612bd5565b9150613aca82613a89565b602082019050919050565b60006020820190508181036000830152613aee81613ab2565b9050919050565b7f556e617574686f72697a65640000000000000000000000000000000000000000600082015250565b6000613b2b600c83612bd5565b9150613b3682613af5565b602082019050919050565b60006020820190508181036000830152613b5a81613b1e565b9050919050565b7f4e6f20636f6d6d69746d656e7400000000000000000000000000000000000000600082015250565b6000613b97600d83612bd5565b9150613ba282613b61565b602082019050919050565b60006020820190508181036000830152613bc681613b8a565b9050919050565b7f52657665616c20746f6f206561726c7900000000000000000000000000000000600082015250565b6000613c03601083612bd5565b9150613c0e82613bcd565b602082019050919050565b60006020820190508181036000830152613c3281613bf6565b9050919050565b600081905092915050565b6000613c4f82612e5a565b613c598185613c39565b9350613c69818560208601612e65565b80840191505092915050565b6000819050919050565b613c90613c8b82612f86565b613c75565b82525050565b6000613ca28285613c44565b9150613cae8284613c7f565b6020820191508190509392505050565b7f496e76616c69642072657665616c000000000000000000000000000000000000600082015250565b6000613cf4600e83612bd5565b9150613cff82613cbe565b602082019050919050565b60006020820190508181036000830152613d2381613ce7565b9050919050565b7f4e487b7100000000000000000000000000000000000000000000000000000000600052601260045260246000fd5b6000613d6482612c52565b9150613d6f83612c52565b925082613d7f57613d7e613d2a565b5b828204905092915050565b6000613d9582612c52565b9150613da083612c52565b9250828203905081811115613db857613db761338d565b5b92915050565b7f496e73756666696369656e74205320666f72207061796f757400000000000000600082015250565b6000613df4601983612bd5565b9150613dff82613dbe565b602082019050919050565b60006020820190508181036000830152613e2381613de7565b9050919050565b600081905092915050565b50565b6000613e45600083613e2a565b9150613e5082613e35565b600082019050919050565b6000613e6682613e38565b9150819050919050565b7f5061796f7574206661696c656400000000000000000000000000000000000000600082015250565b6000613ea6600d83612bd5565b9150613eb182613e70565b602082019050919050565b60006020820190508181036000830152613ed581613e99565b9050919050565b7f57696e6e657221205365637265743a2000000000000000000000000000000000600082015250565b6000613f12601083613c39565b9150613f1d82613edc565b601082019050919050565b6000613f3382613f05565b9150613f3f8284613c44565b915081905092915050565b7f4a41434b504f545f574f4e000000000000000000000000000000000000000000600082015250565b6000613f80600b83612bd5565b9150613f8b82613f4a565b602082019050919050565b60006040820190508181036000830152613faf81613f73565b90508181036020830152613fc38184612ea0565b905092915050565b60006040820190508181036000830152613fe58185612ea0565b9050613ff46020830184612d2b565b9392505050565b7f4d7573742073656e64205320746f2066756e64206a61636b706f740000000000600082015250565b6000614031601b83612bd5565b915061403c82613ffb565b602082019050919050565b6000602082019050818103600083015261406081614024565b9050919050565b7f4a41434b504f545f46554e444544000000000000000000000000000000000000600082015250565b600061409d600e83612bd5565b91506140a882614067565b602082019050919050565b7f4a61636b706f742066756e646564210000000000000000000000000000000000600082015250565b60006140e9600f83612bd5565b91506140f4826140b3565b602082019050919050565b6000604082019050818103600083015261411881614090565b9050818103602083015261412b816140dc565b9050919050565b7f4e6f2068696e747320617661696c61626c650000000000000000000000000000600082015250565b6000614168601283612bd5565b915061417382614132565b602082019050919050565b600060208201905081810360008301526141978161415b565b9050919050565b7f4e45575f53454352455400000000000000000000000000000000000000000000600082015250565b60006141d4600a83612bd5565b91506141df8261419e565b602082019050919050565b7f4e65772073656372657420736574210000000000000000000000000000000000600082015250565b6000614220600f83612bd5565b915061422b826141ea565b602082019050919050565b6000604082019050818103600083015261424f816141c7565b9050818103602083015261426281614213565b9050919050565b600060408201905061427e60008301856131d1565b61428b6020830184612c5c565b9392505050565b6000815190506142a181612d9a565b92915050565b6000602082840312156142bd576142bc612c90565b5b60006142cb84828501614292565b91505092915050565b7f4d61726b6574696e67207472616e73666572206661696c656400000000000000600082015250565b600061430a601983612bd5565b9150614315826142d4565b602082019050919050565b60006020820190508181036000830152614339816142fd565b9050919050565b600060408201905061435560008301856131d1565b6143626020830184612fe9565b939250505056fea264697066735822122004aea16fc5359ad2fccdb7c64d102b0b82f9502796a9cc715f1874a12b30497f64736f6c634300081c0033",
  "linkReferences": {},
  "deployedLinkReferences": {}
}